:020000040800F2
:1000000000200020450A0008390A00083B0A0008C1
:1000100000000000000000000000000000000000E0
:100020000000000000000000000000003D0A000881
:1000300000000000000000003F0A0008410A00081C
:10004000950A0008950A0008950A0008950A000814
:10005000950A0008950A0008950A0008950A000804
:10006000950A0008950A0008950A0008950A0008F4
:10007000950A0008950A0008950A0008950A0008E4
:10008000950A0008950A000800000000950A00087B
:10009000950A0008950A0008950A0008950A0008C4
:1000A000950A0008950A0008950A0008950A0008B4
:1000B000950A000800000000950A000800000000F2
:1000C00010B5064C2378002B07D1054B002B02D02E
:1000D000044800E000BF0123237010BD1800002079
:1000E00000000000740C0008044B10B5002B03D076
:1000F0000349044800E000BF10BDC04600000000F6
:100100001C000020740C0008002243088B4274D3AA
:1001100003098B425FD3030A8B4244D3030B8B4208
:1001200028D3030C8B420DD3FF22090212BA030C11
:100130008B4202D31212090265D0030B8B4219D3F2
:1001400000E0090AC30B8B4201D3CB03C01A524112
:10015000830B8B4201D38B03C01A5241430B8B425A
:1001600001D34B03C01A5241030B8B4201D30B0343
:10017000C01A5241C30A8B4201D3CB02C01A52416A
:10018000830A8B4201D38B02C01A5241430A8B422D
:1001900001D34B02C01A5241030A8B4201D30B0216
:1001A000C01A5241CDD2C3098B4201D3CB01C01A30
:1001B000524183098B4201D38B01C01A524143093A
:1001C0008B4201D34B01C01A524103098B4201D328
:1001D0000B01C01A5241C3088B4201D3CB00C01A95
:1001E000524183088B4201D38B00C01A524143080D
:1001F0008B4201D34B00C01A5241411A00D2014632
:10020000524110467047FFE701B5002000F006F8A4
:1002100002BDC0460029F7D076E770477047C04658
:10022000F0B587B016006A46CC0F641864106300FE
:100230000833DB08DB00D31A00AF9D466D467860BB
:1002400022000021280000F00DFD00237A68A3425F
:1002500037DB2E4A01211300FC60D0680842FCD134
:100260001169090605D52A490968516029490968B3
:100270005160B20515D1196902320A431A61402250
:100280005E6119690A431A610122D9681142FCD1E1
:100290002022D968114200D0DA6002211A698A430B
:1002A0001A61002220203A617A6101327C69F96882
:1002B0008C4211D38022BD4619690A431A6107B0E6
:1002C000F0BD517809028C46604611780232014334
:1002D000580029520133BAE71969114319617C6941
:1002E00039696400645B89190C80D9681142FCD1BA
:1002F000D968014200D0D860196991431961396900
:1003000002313961796901317961CFE7002002401A
:1003100000000020040000200B0010B5401A5C1AF9
:10032000A24200DC10BD1C78C4540133F7E7000082
:1003300000B589B01422002103A800F093FC8020AE
:10034000094A8002516901435161536902A903407E
:100350000193019B90200423C0050293033B069365
:1003600000F099FB09B000BD00100240802300227C
:10037000DB055A625A6A8242FCD3704710B572B6E6
:10038000094B0A4A1B681360094A1278012A03D0F4
:100390000022084B1A8010BD074A1360074A1268F2
:1003A00082F308889847F6E70410000858010020F7
:1003B000007C0008420000206802002000100008B5
:1003C000F7B50024050023000127134A019114709A
:1003D000547001992E1AB1420BDC002C02D013701C
:1003E0001B0A537011780D4B197052780C4B1A7010
:1003F000F7BD08242E78310059405B08394202D0FD
:1004000008494B409BB2013CE4B27608002CF2D183
:1004100001353C00DDE7C046340000205E010020CD
:100420005D01002001A0FFFF70B54318455C5C78BA
:10043000FFF7C6FF054B00201B78AB4205D1044BEC
:100440001878001B43425841C0B270BD5E010020C5
:100450005D01002010B5FFF76BFF0022014B1A6011
:1004600010BDC0467002002090213022C9050B68E3
:1004700093431A00102313430B607047F8B5902183
:10048000002380201D4D1E4C2B70C9050433C00570
:100490000A691A4225D01B4B902280201978042328
:1004A000D205C00514691C4022D11A209027FFF7FD
:1004B0005DFF0126FF053420FFF758FF3B692A78CE
:1004C0009B083340A340013413432B70082CF2D116
:1004D0001A20FFF74BFF0B4B2A781E700A4B1A703D
:1004E00005E0426AA242D3D96522084B1A80F8BDC2
:1004F000446AFA2CD6D90029D4D0F8E74500002068
:10050000400D0300440000206E0200204200002045
:10051000F8B590250423060008240127ED05AB62F9
:100520003420FFF723FF04233E420DD0AB61013C92
:10053000E4B27608002CF3D13420FFF717FF9023A4
:100540000422DB059A61F8BDAB62F0E710B5FFF756
:100550008BFF3020FFF7DCFFFFF77CFF10BD10B5ED
:10056000FFF782FFC220FFF7D3FFFFF773FF10BD35
:1005700070B505000E000400631B9E4200DC70BDD8
:100580002078FFF7C5FF3420FFF7F0FE0134F3E7D2
:1005900010B5FFF769FF09210248FFF7E9FFFFF7F0
:1005A00059FF10BD08000020F7B58B4D00AF2B7828
:1005B0008A4C002B1FD08A4B20001988894B198048
:1005C000FFF732FF002800D1B0E08022864E5200B3
:1005D0000021300000F046FB824B1A8800239A422B
:1005E00005DCFFF7B3FF00232B70BD46F7BDE15CD0
:1005F000F1540133F3E723787C4E3360227C7D2A6B
:100600000AD1237A0D2BF0D1637A422BEDD1FFF77B
:10061000BFFF00232375E8E7227D7D2A05D1227BD9
:100620000D2A02D1627B422AF1D0220028321278B0
:100630007D2A07D1621CD27F0D2A03D1A21CD27F52
:10064000422AE4D0012B11D10221664B20001980EF
:10065000FFF7EAFE002869D0614B63481988644BB4
:100660001A68FFF7DDFDFFF771FFBEE7FF2B27D10B
:1006700004215C4B20001980FFF7D6FE002855D0DE
:1006800000225C4B1A80E378A2781B0213435BBA0A
:10069000594A9BB2934213D980228020120599189F
:1006A0004001534A834203D0F820C001834201D164
:1006B0001160D8E7514B10681B881B188B42F7D28A
:1006C0003168FE2916D1474BFA3920001980FFF70F
:1006D000ABFE00282AD08023A178414A5B00012983
:1006E00005D1138001222A70444A138012E0E17878
:1006F0001180F7E72378FD2B0FD10221394B200021
:100700001980FFF791FE002810D0FFF7ADFEC12041
:10071000FFF7FEFEFFF79EFE67E7022909D1314B86
:1007200020001980FFF780FE00289CD1FFF717FFFB
:100730005BE704290BD10122314B1A70FFF794FEBD
:10074000C120FFF7E5FE2B4A13880133CDE70329CB
:10075000F4D10222234B1A802A4A13680133136012
:100760006578002D01D10135FF358022234B022110
:1007700020001A80FFF758FE0028D7D06B467B6018
:10078000FFF772FE2B006A460A33DB08DB00D31A40
:100790009D466E46EC1C22000021684600F062FA7D
:1007A000134B2A0019686846FFF7B6FD2900684612
:1007B000FFF706FE144B68461B7821007355134B58
:1007C0006D441B786B703023AB70FFF7D1FEFFF7E1
:1007D00041FE7B689D4608E7410000205F01002044
:1007E000480000206C0200204A0000203800002051
:1007F0004C01002042000020FF0F00006202002098
:10080000400000203C0000205E0100205D0100202F
:10081000F8B5812200241B4E1B4D1C4B52002100B9
:10082000300080272C601C7000F01CFAFF05FFF7D9
:1008300025FE174B1B78002B10D0164A2B68128808
:1008400002329A420ED0144A013312782B6032558C
:10085000812301345B009C42E9D103E07A6AFA2AE1
:1008600003D92B60FFF7A0FEF8BD0B4B1B78335567
:100870000223FF339C42EBD1084A138814331380C0
:10088000E6E7C0465F0100203C0000204400002055
:1008900041000020480000204500002042000020C8
:1008A0000122234910B50B68934313430B600B6877
:1008B000204B19680A431A60022219681142FCD0C1
:1008C000F8211A688A43110080220A431A605A6884
:1008D00019491140A02292030A430F215A60DA6A93
:1008E0008A43DA628022196852040A431A6080221D
:1008F000920419681142FCD0F0215A688A435A6068
:100900005A680E490A4003215A605A688A43110006
:1009100002220A430C215A605A680A40082AFBD175
:10092000074800F065F9064800F072F910BDC046AE
:100930000020024000100240FFFFC2FFFFF8FFFF4F
:10094000006CDC0270B501258021364C88B0A369AB
:1009500049052B43A361A36903AE2B400193019B7F
:10096000E2690A43E261E3692F4A0B400093009B6E
:10097000102311680B431360FFF792FF0E20122221
:100980000021684400F06EF9E36931002B43E36114
:10099000E36980242B400293029B2F23E4053380DC
:1009A0002000303BB36000F0D3F8802223681F4959
:1009B00093432360A36804260B407021A3606368FF
:1009C0008B436360A3689343A36023681D43256042
:1009D0009024FFF7ADFC3022E405E368144D934307
:1009E0001A0020231343E3602369334201D1FFF748
:1009F000C5FC0A20013DFFF7B9FC002DF4D13022DF
:100A0000E36893431A0010231343E360FFF7C0FD2C
:100A1000FFF7FEFE074B1B88642BF9D9FFF7AEFCEE
:100A2000F6E7C0460010024000200240F8BFFFFF7A
:100A300010270000420000207047FEE77047704713
:100A4000704770470D4885460D480E490E4A0023F1
:100A500002E0D458C4500433C4188C42F9D30B4A72
:100A60000B4C002301E013600432A242FBD3FFF7DA
:100A7000E8FF00F0D3F8FFF765FFFEE70020002055
:100A80000000002018000020940C0008180000202E
:100A900074020020FEE7F0B500274B6885B0019393
:100AA0000E68013B02933300FB400BD1029B012BEC
:100AB00005D84368CA68B34356431E4346600020C6
:100AC00005B0F0BD0123BB40334033D01A000325ED
:100AD0005A435543ED43046800952C40019D55430E
:100AE0002C430460029C012C0AD88468A446654605
:100AF0008C6854430394009C2540039C2C438460E1
:100B0000C468A44665460C6954430394009C2C4079
:100B10002500039C2543019CC560022C0AD14C6929
:100B2000FF2B09D80F25524355436243036AAB4359
:100B3000134303620137B6E70F221B0A5B435B4393
:100B40005A436343456A95431D434562F2E70000FB
:100B5000204A10B50368904206D08024E405A042E4
:100B600002D01D4CA0420CD17024A3434C682343F7
:100B7000904212D08024E405A0420ED0164CA04230
:100B80000BD0164CA04208D0154CA04205D0154CF5
:100B9000A04202D0144CA04203D1144C2340CC6894
:100BA000234303608B68C3620B888362904208D042
:100BB0000B4B984205D00B4B984202D00A4B9842FF
:100BC00001D10B7C0363012342691343436100207D
:100BD00010BDC046002C0140000400400020004031
:100BE000004001400044014000480140FFFCFFFF7D
:100BF000FA2110B58900FFF787FA0022034B01386C
:100C000058609A6005321A6010BDC04610E000E0DE
:100C1000014B18607047C0461400002070B50026D4
:100C20000C4D0D4C641BA410A64209D1002600F007
:100C300021F80A4D0A4C641BA410A64205D170BDD0
:100C4000B300EB5898470136EEE7B300EB589847EE
:100C50000136F2E78C0C00088C0C00088C0C0008A4
:100C6000900C000803001218934200D170471970CD
:100C70000133F9E7F8B5C046F8BC08BC9E4670479A
:0C0C8000F8B5C046F8BC08BC9E467047A2
:040C8C00E900000873
:040C9000C100000897
:100C940023016745AB89EFCD343731641F06060164
:080CA4003000000000127A008C
:0400000508000A45A0
:00000001FF
