:020000040800F2
:10000000B00800200D0200085F0300085B03000831
:100010005D030008570300081504000800000000F5
:10002000000000000000000000000000A303000822
:100030005903000800000000A1030008A503000800
:1000400027020008270200082702000827020008EC
:1000500027020008270200082702000827020008DC
:1000600027020008270200082702000827020008CC
:1000700027020008270200082702000827020008BC
:1000800027020008270200082702000827020008AC
:10009000270200082702000827020008270200089C
:1000A000270200082702000827020008270200088C
:1000B000270200082702000827020008270200087C
:1000C000270200082702000827020008270200086C
:1000D000270200082702000827020008270200085C
:1000E000270200082702000827020008000000007D
:1000F0000000000000000000000000000000000000
:10010000000000002702000827020008000000008D
:10011000270200082702000800000000000000007D
:10012000270200082702000827020008270200080B
:1001300000000000000000000000000000000000BF
:10014000000000000000000000000000270200087E
:10015000000000000000000027020008270200083D
:10016000000000000000000000000000270200085E
:1001700000F002F800F03AF80AA090E8000C82447F
:100180008344AAF10107DA4501D100F02FF8AFF25C
:10019000090EBAE80F0013F0010F18BFFB1A43F065
:1001A00001031847B00D0000D00D0000103A24BF25
:1001B00078C878C1FAD8520724BF30C830C144BFCC
:1001C00004680C607047000000230024002500260E
:1001D000103A28BF78C1FBD8520728BF30C148BFAA
:1001E0000B6070471FB51FBD10B510BD00F07AF849
:1001F0001146FFF7F7FF00F05DFC00F098F803B43C
:10020000FFF7F2FF03BC00F09FF8000009488047A9
:1002100009480047FEE7FEE7FEE7FEE7FEE7FEE7E8
:10022000FEE7FEE7FEE7FEE704480549054A064B00
:1002300070470000A903000871010008B002002007
:10024000B0080020B0040020B00400204FF00002ED
:100250000429C0F0128010F0030C00F01B80CCF1D8
:10026000040CBCF1020F18BF00F8012BA8BF20F846
:10027000022BA1EB0C0100F00DB85FEAC17C24BF9A
:1002800000F8012B00F8012B48BF00F8012B704744
:100290004FF0000200B5134694469646203922BF1F
:1002A000A0E80C50A0E80C50B1F12001BFF4F7AF6A
:1002B000090728BFA0E80C5048BF0CC05DF804EB4C
:1002C000890028BF40F8042B08BF704748BF20F8BA
:1002D000022B11F0804F18BF00F8012B70477047B8
:1002E00070477047754600F02BF8AE46050069462A
:1002F000534620F00700854618B020B5FFF794FF5D
:10030000BDE820404FF000064FF000074FF0000816
:100310004FF0000BAC46ACE8C009ACE8C009ACE853
:10032000C009ACE8C00921F007018D46704710B53F
:100330000446AFF300802046BDE81040FFF75FBFE2
:10034000004870471800002001491820ABBEFEE7A6
:10035000260002007047FEE77047FEE7FEE77047A1
:100360004FF4FA704FF4FA7600F09EBA206840F02D
:10037000400020604FF0804000F0BEBAF08120467F
:1003800000F04AB84FF4801000F0B6BA216821F0AE
:100390000101216010BD226842F001022260704715
:1003A0007047704770470000AA48C16941F080510A
:1003B000C16116490A7842F004020A70C16921F04D
:1003C0008051C161016841F0010101600168890744
:1003D000FCD5416821F003014160416811F00C0F28
:1003E000FBD101689C4A114001600021416041F647
:1003F0001071C1624FF4801101634FF41F018160DD
:1004000003484FF000610160704700BF507000402A
:1004100008ED00E0FEE70000B0B54218445C5578F6
:1004200000F0DCFB044801794079684061400843F2
:10043000B0FA80F04009B0BD7800002070B500200F
:100440002821102200F0E6FAFFF78AFF244C254D00
:1004500056B12068C00602D42888013028800A20BE
:1004600000F022FA013EF3E72888B0F5E17F06D9D3
:100470001D4800F091F8012818BF00F0FDFA002097
:100480001821102200F0C6FAFFF76AFF56B1206863
:10049000C00602D42888013028800A2000F004FA1F
:1004A000013EF3E72888D0B10020042110222880E3
:1004B000002000F0AFFAFFF753FF56B12068C006E6
:1004C00002D42888013028800A2000F0EDF9013E8E
:1004D000F3E7288818B1BDE8704000F0CDBA70BDD0
:1004E000080C0140A00000201C002400614900F01D
:1004F0000F000A6822F0F00242EA0010086070471C
:100500005C4900F007000A6822F4E06242EA002039
:1005100008607047574900F007000A6822F46052EB
:1005200042EAC02008607047044901280A6822F0A6
:10053000300208BF30320A60704700BF54100240DA
:10054000042828D8DFE800F00309121C22004148E3
:10055000026861F300020260704701F001003D494A
:100560000A6822F4803242EA004007E001F001000C
:1005700038490A6822F0807242EA006008607047D9
:100580003448026A61F30002026270473148426AED
:1005900061F30002426270472E4A010C00F01F0016
:1005A000895821FA00F000F00100704700F01F02A6
:1005B0000123000C9340274A0129815814BF994315
:1005C00019438150704700BF2A4A136868B143F449
:1005D000803301281360136807BF23F400334FF002
:1005E000007043F40033002002E023F48033002045
:1005F0001360136861F39543C1F30211136013682C
:1006000061F35E731360916A21F0E06108439062C8
:10061000704700BF0F48016841F0010101600168A7
:100620008907FCD5416821F003014160416811F060
:100630000C0FFBD10168084A1140016000214160A4
:1006400041F61071C1624FF4801101634FF41F0134
:100650008160704700100240FFFFF2FE05490A6802
:1006600060F301020A60704702480068C0F381002D
:10067000704700BF041002402DE9F84F04AF864ECA
:10068000F078D8B1854CB1892046F181FFF7C4FEDE
:10069000002800F0F080824D4FF480712846FFF76B
:1006A000F7FDF08928B114F8011B013805F8011B8A
:1006B000F8E700F065FB0020F07025E0774C217C26
:1006C00020787D29B06106D1207A0D281CD1607A6E
:1006D000422815D018E0217D7D2905D1217B0D29E7
:1006E00002D1617B42290BD094F828107D2910D1CA
:1006F00094F820100D290CD194F82110422908D12A
:1007000000F01EFB00202075A7F10C04A546BDE8F3
:10071000F08F6178A278E37801431143194319D02F
:10072000411E032927D9FD283AD0FE2846D0FF28AC
:1007300012D15A4C04200421FFF720FE002800F0BB
:100740009A80002030816088000400BA00F10060C7
:10075000706253E0C920308100F092FBC12000F0AC
:100760006DFB308901303081A7F10C04A546BDE84E
:10077000F04F00F079BBDFE801F002354885022038
:100780000221F0814548FFF747FE002873D0726AC6
:100790004448824279D9B189414800F087FA2DE076
:1007A00002200221F0813D48FFF736FE002862D08A
:1007B00000F066FBC12000F041FBD5E7374C042078
:1007C0000421FFF7DBFD002855D04FF48070E1785D
:1007D00030820120F070A078012808BF4FF48071AA
:1007E000B181C1E702200221F0812C48FFF714FEFD
:1007F000002840D0706A2B49884246D9A7F10C04E2
:10080000A546BDE8F04F00F0BBBA244C02200221FF
:10081000FFF7B4FD78B380206478308270690130CE
:10082000706100F02DFB002C08BF4FF4807404F1C0
:100830000A00E94620F00700ADEB0005AD4604F1E3
:10084000030828464146FFF701FD716A2846224603
:1008500000F0E4F92846214600F0C0F9B0883021C4
:100860002853281981702846414600F079FA00F093
:10087000FBFACD4648E7A7F10C04A546BDE8F04FCA
:1008800000F096BA0120707066E7A7F10C04A54647
:10089000BDE8F04F00F082BA78000020A8010020E7
:1008A000A4000020FF0F0008034900220A600A6824
:1008B0008242FCD3704700BF240400400D49086009
:1008C000704700BF2548016841F080010160704712
:1008D00008480168C9071CBF002070470168490724
:1008E00044BF012070470068C0064FF0020058BFA7
:1008F000032070470C20024010B50446FFF7E8FFC4
:100900001CB1010601D1013CF8E7002C08BF04200E
:10091000C0B210BD10B5114C216841F00201216038
:100920006060FFF723FD216821F00201216010BD06
:1009300002480349016003490160704704200240F6
:1009400023016745AB89EFCD10B5044CFFF723FDBC
:100950000160FFF717FDFFF719BD00BF102002402F
:100960009D4A4FF6FF71C0E900127047F0B58B79D0
:100970000A88032B0AD05BB94979282913D0182992
:1009800012BF01F00F01026108210EE000210CE00E
:100990000C79C97903F0080304F0040401F00301A1
:1009A0002344194401E042610821130616D00023B4
:1009B0000F240025082D11D022FA05F6F6070AD0DB
:1009C000076804FA03F627EA0606066001FA03F64A
:1009D00007683E43066004330135EBE7B2F5807FDC
:1009E00017D3120A00230F240025082D11D022FA54
:1009F00005F6F6070AD0476804FA03F627EA060662
:100A0000466001FA03F647683E4346600433013509
:100A1000EBE7F0BDFEB501AF064614460D4638467D
:100A2000FFF79EFF044839468DF80A6001948DF85F
:100A30000950FFF79BFFFEBD000C014070B5C0F3ED
:100A40000725C0F307424FF0FF3355FAA0F503FA2C
:100A500002F4C5F12005EB40064D2340040EC0B260
:100A600066599040002926EA030318BF03436351E7
:100A700070BD00BF000001400C49EFF3108072B65A
:100A8000EB484A68C2610A4A1278012A1EBF002157
:100A9000018170474D4A136823F001031360C26956
:100AA0000262096881F30888006A004700100008A4
:100AB000007C000882B0B84D02204FF4AA71686033
:100AC000032068603E480160FFF7A4FD002001217B
:100AD000FFF736FD0120FFF75FFD0128FAD1002066
:100AE0002321FFF771FD02200121FFF729FD1920C5
:100AF000FFF752FD0128FAD10020FFF7F7FC042090
:100B0000FFF708FD0420FFF7FBFC0120FFF70CFDB9
:100B10000220FFF7A3FDFFF7A7FD0228FBD100206D
:100B2000FFF702FD00F0B6F92648274C0121A04747
:100B3000264E8F200121B0624FF6FF70F06270697F
:100B400040F001007061306840F0010030602048E2
:100B5000A0474FF4C0100121A0471E480121FFF714
:100B60006DFF6C462046FFF7FBFE102021460090EB
:100B70001948019006F58430FFF7F8FEFFF75EFC98
:100B8000002004211022FFF745FF2878E87200F0CA
:100B900077F900F069F9A64CC92768687063608925
:100BA000B06300F045F86868B0F57A7F01DD278111
:100BB00002E02089C928F0D3FFF75EFFEDE700BF10
:100BC0000020024001001C00AD05000800040040A8
:100BD000030018000203103000040001F0B50E4AB3
:100BE0000024002500238B4212D0C55C0026082E6D
:100BF0000AD2C4F34E076C40E40718BF5740ECB26A
:100C0000013665083C46F2E7A5B201332D0AEAE752
:100C1000874845710471F0BD01A0FFFF10B50023A6
:100C20009342A8BF10BDCC5CC4540133F8E7000068
:100C30002DE9F0417E4D1B4C00204FF4817128704E
:100C400068612046FFF724FB7A48174E524F8046D2
:100C500026B300F0B7F8786801307860E87858B1CA
:100C6000A98968690231884218D0AA78A11901308F
:100C7000686181F802210DE04046D8F80000FB28A9
:100C80000AD2A978A01980F80211701C02D1288913
:100C9000143028810136DBE700206861BDE8F041AF
:100CA000FFF7EABCA8010020FEFEFFFF2DE9FF4789
:100CB00007AF06460420904691FBF0F4072000EBB6
:100CC000840020F00700ADEB0005AD462846214624
:100CD000FFF7DEFA0020A04205DA56F8201045F8AA
:100CE00020100130F7E747F8104CFFF721FE5FEACC
:100CF000885002D14046FFF70DFE002047F8140C43
:100D000047F8180C57F8180C57F8101C884210D2E6
:100D100057F8180C57F8181C55F8211008EB8000EC
:100D2000FFF712FE3420FFF7C9FD57F8180C013009
:100D3000E6E7A7F10C04A546BDE8F047FFF7C2BD02
:100D400080B53B4841890131418100F099F8124852
:100D50000921083000F004F8BDE8804000F084B8B4
:100D600070B50C4605460026A642A8BF70BDA85D1A
:100D700000F064F83420FFF797FD0136F4E7000037
:100D800080B500F07DF8302000F058F800F06CF8E5
:100D900001480021416080BD0000002080B500F0C6
:100DA0006FF8C12000F04AF8BDE8804000F05CB860
:100DB00080B500F065F8C22000F040F8BDE8804042
:100DC00000F052B870B51A4C00201B4D44F621615A
:100DD000A07018482A68D20606D402688A42F9D35D
:100DE00040F2E930208170BD21782A68D20605D50D
:100DF0000268FB2AF9D30029F7D070BD1A20FFF74B
:100E000053FD0026082E0BD03420FFF74DFDA078AF
:100E10002968C1F30011B14001360843A070F1E721
:100E20001A20FFF741FD01202070A078A07170BD4D
:100E30007800002024040040080C0140F8B5144D4F
:100E40001026044600276E603420FFF72DFD072F83
:100E500006D8E0070CBF6E602E6064080137F3E728
:100E600010202860F8BD00BF10B50020042110221A
:100E70000024FFF7CFFD0148046010BDA40100204D
:100E8000034810211022016010200421FFF7C2BD89
:100E9000100C014070B5264D264CFFF7E5FB0228EB
:100EA00008D0D0BB206D800537D5E06A800148BFEF
:100EB000224D32E02068A16AC0F3004000290BD423
:100EC00021682268C2F34172C1F383410AB90F2934
:100ED00018D11201013216E0A16AA26AA36A164E65
:100EE000C1F30311C2F3082203F0070318B120680D
:100EF000800358BF2E4601FA03F006FB02F1B1FB56
:100F0000F0F50AE00222114420B12068800301D4E8
:100F10004D4302E0084801FB00F5094809A20560BD
:100F20002168C1F30311515C25FA01F1016070BD24
:100F300000127A000410024000093D00006CDC023F
:100F40001400002000000000000000000102030463
:100F500006070809780F00080000002018000000AC
:100F6000AC010008900F000818000020980800004D
:100F7000C80100080000000014000000010000008B
:100F8000343731001F0606013000000000127A00DD
:020000041FFFDC
:0CF80000A55AFF00FF00FF00FF00FF0002
:04000005080001717D
:00000001FF
