:020000040800F2
:1000000000100020B50B0008A90B0008AB0B00087E
:1000100000000000000000000000000000000000E0
:10002000000000000000000000000000AD0B000810
:100030000000000000000000AF0B0008B10B00083A
:10004000050C0008050C0008050C0008050C00084C
:10005000050C0008050C0008050C0008050C00083C
:1000600000000000050C0008050C0008050C000845
:10007000050C0008050C0008050C0008050C00081C
:10008000050C00080000000000000000050C00083E
:1000900000000000050C0008050C0008050C000815
:1000A00000000000050C000800000000050C00081E
:1000B0000000000000000000000000000000000040
:1000C00010B5064C2378002B07D1054B002B02D02E
:1000D000044800E000BF0123237010BD1800002079
:1000E00000000000D00D0008044B10B5002B03D019
:1000F0000349044800E000BF10BDC04600000000F6
:100100001C000020D00D0008002243088B4274D34D
:1001100003098B425FD3030A8B4244D3030B8B4208
:1001200028D3030C8B420DD3FF22090212BA030C11
:100130008B4202D31212090265D0030B8B4219D3F2
:1001400000E0090AC30B8B4201D3CB03C01A524112
:10015000830B8B4201D38B03C01A5241430B8B425A
:1001600001D34B03C01A5241030B8B4201D30B0343
:10017000C01A5241C30A8B4201D3CB02C01A52416A
:10018000830A8B4201D38B02C01A5241430A8B422D
:1001900001D34B02C01A5241030A8B4201D30B0216
:1001A000C01A5241CDD2C3098B4201D3CB01C01A30
:1001B000524183098B4201D38B01C01A524143093A
:1001C0008B4201D34B01C01A524103098B4201D328
:1001D0000B01C01A5241C3088B4201D3CB00C01A95
:1001E000524183088B4201D38B00C01A524143080D
:1001F0008B4201D34B00C01A5241411A00D2014632
:10020000524110467047FFE701B5002000F006F8A4
:1002100002BDC0460029F7D076E770477047C04658
:10022000F0B587B015006A46CC0F641864106300FF
:100230000733DB08DB00D31A00AF9D466E467860BB
:1002400022000021300000F0BAFD00237868A342AC
:1002500037DB2E4A01211300FC60D0680842FCD134
:100260001169090605D52A490968516029490968B3
:100270005160AA0515D1196902320A431A61402258
:100280005D6119690A431A610122D9681142FCD1E2
:100290002022D968114200D0DA6002211A698A430B
:1002A0001A61002220203A617A6101327C69F96882
:1002B0008C4211D38022BD4619690A431A6107B0E6
:1002C000F0BD4278120294466146027802300A4339
:1002D000590072520133BAE71969114319617C69F7
:1002E00039696400A45B49190C80D9681142FCD1BA
:1002F000D968014200D0D860196991431961396900
:1003000002313961796901317961CFE7002002401A
:100310000000002004000020002310B5934200DB01
:1003200010BDCC5CC4540133F8E70000F0B589B0CF
:100330001022002104A800F042FD8021134C890204
:10034000626990250A436261636900270B4001934B
:100350000126019B0423ED0502A9280002930397BF
:10036000069600F050FC80216269C9020A4362616E
:10037000636928000B400093009B802302A902932D
:100380000397069600F03FFC09B0F0BD0010024054
:1003900080230022DB055A625A6A8242FCD37047EE
:1003A00010B572B6094B0A4A1B681360094A1278E5
:1003B000012A03D00022084B1A8010BD074A13609F
:1003C000074A126882F308889847F6E70410000885
:1003D00058010020007C0008420000206C02002030
:1003E00000100008F7B50191002100900B000800F3
:1003F0000125124A124F11705170019C84420BDC8E
:10040000002902D013701B0A537011780D4B19701C
:1004100052780D4B1A70F7BD00990C5C082126002C
:100420005E405B082E4201D07B409BB20139C9B2CD
:1004300064080029F3D129000130DEE734000020F0
:1004400001A0FFFF5E0100205D01002070B5431890
:10045000455C5C78FFF7C6FF054B00201B78AB427C
:1004600005D1044B1878001B43425841C0B270BDFF
:100470005E0100205D01002010B5FFF757FF00224C
:10048000014B1A6010BDC04674020020902130223A
:10049000C9050B6893431A00102313430B60704780
:1004A0000023F0B5040018000A4E0239994200DC1E
:1004B000F0BD0825E25C1202504007B2420090B243
:1004C000002F01DA724090B2013D002DF5D10133C9
:1004D000ECE7C04621100000F8B5902100238020F1
:1004E0001E4D1F4C2B70C9050433C0050A691A4202
:1004F00027D01C4B9021802618780423C905F605C7
:100500000A6914001C401A4222D11A209027FFF7D2
:100510003FFF0126FF053420FFF73AFF3B692A78A9
:100520009B083340A340013413432B70082CF2D1B5
:100530001A20FFF72DFF0B4B2A781E700A4B1A70FA
:1005400005E0426AA242D1D96522084B1A80F8BD63
:10055000726AFA2AD4D90028D2D0F8E745000020E0
:10056000400D0300440000207202002042000020E1
:10057000F8B590260423050008240127F605B36288
:100580003420FFF705FF04233D420DD0B361013C49
:10059000E4B26D08002CF3D13420FFF7F9FE90236C
:1005A0000422DB059A61F8BDB362F0E710B5FFF7EE
:1005B0006DFF3020FFF7DCFFFFF75EFF10BD70B569
:1005C00006000D000024AC4200DB70BD305DFFF77B
:1005D000CFFF3420FFF7DCFE0134F4E710B5FFF75E
:1005E00055FF09210248FFF7EAFFFFF745FF10BD5D
:1005F00008000020F0B5254F254C7B78A5443A2B08
:1006000039D1002406222100FF3201A87E7900940E
:1006100000F0D5FBF978BB780902194349BA1D4BA4
:1006200089B2320068461960FFF776FE0622210083
:10063000FF3244A800F0C3FB174B43AD2B80BB78BF
:10064000AB70FB78EB707B792B71A64217DC002333
:10065000B11DAC19C9B228006371FFF721FF030A6D
:10066000A371E071FFF712FF310028000831FFF796
:10067000A6FFFFF701FF87239B009D44F0BD6A465C
:10068000125D2B195A710134DFE7C0465F0100206B
:10069000E4FDFFFF4C0100202E3A00007FB5154C11
:1006A000082665783B2D03D16679002E1FD00736CA
:1006B0002000F1B2FFF7F4FEA419A31E1A78013C42
:1006C000237812021343984210D1372D0CD10C22FB
:1006D000094901A800F06AFBFFF7D8FE0C2101A828
:1006E000FFF76DFFFFF7C8FEFFF784FF7FBD082609
:1006F000FF36DDE75F010020E80D0008F7B5934CF9
:10070000934D237800AF002B1ED0924B2800198800
:10071000914B1980FFF79AFE002815D080228F4E4A
:1007200052000021300000F04AFB8B4B1A88002356
:100730009A4205DCFFF73AFF00232370BD46F7BD60
:10074000E95CF1540133F3E72B78854A13602F2BD2
:1007500002D1FFF7A3FFF1E72A7D7D2A0AD12B7B87
:100760000D2BEBD16B7B422BE8D1FFF737FF00233A
:100770002B75E3E72A7C7D2A04D12B7A0D2BDDD162
:100780006B7AF0E72A00283212787D2A06D16B1C9A
:10079000DB7F0D2BD2D1AB1CDB7FE4E7002B22D11A
:1007A000AA786B781343EA78134302D165226D4B24
:1007B0001A802B78FE2B36D10421674B2800198034
:1007C000FFF744FE00282ED0AB78012B28D0EB7821
:1007D000604A1380012380222370634B52001A80E9
:1007E000FFF74AFEAAE7012B00D086E002215A4B10
:1007F00028001980FFF72AFE002800D17DE0554B24
:1008000056481988594B1A68FFF70AFDFFF7CEFEC4
:1008100094E7554B10681B881B188B42C9D392E094
:1008200080235B00D4E72B78FD2B0DD102214A4BAE
:1008300028001980FFF70AFE002805D0FFF726FEE2
:10084000C120FFF795FECBE72978022906D1424B5C
:1008500028001980FFF7FAFD0028D7D12B78042B48
:100860000CD10122424B1A70FFF710FEC120FFF796
:100870007FFE3C4A138801331380B1E7032BF3D189
:100880000222354B1A806C78002C01D10134FF34E0
:100890008022354B022128001A80FFF7D7FD00285F
:1008A000E2D0FFF7F3FD23006E460A33DB08DB00DE
:1008B000F31A9D46E51C2A00002168467B6000F083
:1008C0007EFA2A4B220019686846FFF725FD2100B1
:1008D0006846FFF787FD274B7A681B7868461355F3
:1008E000254B6C441B78290063703023A370FFF7FD
:1008F00066FEFFF7C1FDB54620E72B78FF2B00D041
:1009000057E70421144B28001980FFF79FFD0028AA
:1009100000D14EE700228020124B40011A80EB7874
:10092000AA781B0213435BBA9BB2834200D240E712
:100930008022120599180D4A834204D0F820C00184
:10094000834200D065E7116060E7C04641000020A7
:100950005F01002048000020700200204A000020B3
:100960003800002042000020680200204C010020D6
:10097000400000205E0100205D010020F8B50A2241
:1009800000241B4D1B4E1C4B210028008027FF32EA
:1009900034601C7000F013FAFF05FFF79DFD174B44
:1009A0001B78002B11D0164A3368128802329A4203
:1009B0000FD0144A0133127833602A700A230134AD
:1009C000FF3301359C42E8D103E07A6AFA2A03D961
:1009D0003360FFF793FEF8BD0A4B1B782B700223A0
:1009E000FF339C42EAD1084A138814331380E5E7A9
:1009F0005F0100203C000020440000204100002056
:100A00004800002045000020420000200122234928
:100A100010B50B68934313430B600B68204B1968A8
:100A20000A431A60022219681142FCD0F8211A68A0
:100A30008A43110080220A431A605A6819491140FA
:100A4000A02292030A430F215A60DA6A8A43DA62CB
:100A50008022196852040A431A608022920419689D
:100A60001142FCD0F0215A688A435A605A680E49F4
:100A70000A4003215A605A688A43110002220A433D
:100A80000C215A605A680A40082AFBD1074800F036
:100A900053F9064800F060F910BDC046002002403E
:100AA00000100240FFFFC2FFFFF8FFFF006CDC02F6
:100AB00070B501258021384C88B0A36949052B43C6
:100AC000A361A36903AE2B400193019BE2690A4332
:100AD000E261E369314A0B400093009B10231168E7
:100AE0000B431360FFF792FFFFF720FC1422002155
:100AF000300000F064F9E36901222B43E361E3690C
:100B000080242B400293029B2F2333800023E40593
:100B10003100524220007360B260F36000F0C4F80C
:100B2000802223681E4993432360A36804260B4058
:100B30007021A36063688B436360A3689343A360E1
:100B40002368503A1D4325609024E405E368FA25A4
:100B500093431A0020231343E360AD00236933421B
:100B600001D1FFF71DFC0A20013DFFF711FC002D0C
:100B7000F4D13022E36893431A0010231343E36057
:100B8000FFF77AFCFFF7FAFE064B1B88642BF9D9B6
:100B9000FFF706FCF6E7C0460010024000200240C6
:100BA000F8BFFFFF420000207047FEE77047704724
:100BB000704770470D4885460D480E490E4A002380
:100BC00002E0D458C4500433C4188C42F9D30B4A01
:100BD0000B4C002301E013600432A242FBD3FFF769
:100BE000E8FF00F0BFF8FFF763FFFEE7001000200A
:100BF0000000002018000020FC0D00081800002054
:100C000078020020FEE7F7B500254B680A680093DC
:100C1000013B01931300EB400AD1019B012B05D846
:100C20004368C96893434A431A4342600020FEBDAB
:100C300001241300AC402340224228D01A0003278D
:100C40005A4357433E000468FF43B443009E564353
:100C500034430460019C012C05D88C688668544399
:100C60003E40344384600C69C66854433740274390
:100C7000009CC760022C0AD14C69FF2B09D80F26B3
:100C8000524356436243036AB3431343036201353D
:100C9000BBE70F221B0A5B435B435A436343466A2D
:100CA00096431E434662F2E71D4A10B50368904220
:100CB00006D08024E405A04202D01A4CA0420CD1F8
:100CC0007024A3434C68234390420FD08024E40552
:100CD000A0420BD0134CA04208D0134CA04205D028
:100CE000124CA04202D0124CA04203D1114C23401E
:100CF000CC68234303608B68C3620B888362904295
:100D000005D00A4B984202D0094B984201D10B7C86
:100D100003630123426913434361002010BDC046B1
:100D2000002C01400004004000200040004401402D
:100D300000480140FFFCFFFFFA2110B58900FFF7D2
:100D4000E3F90022034B013858609A6005321A60BB
:100D500010BDC04610E000E0014B18607047C0466F
:100D60001400002070B500260C4D0D4C641BA4101F
:100D7000A64209D1002600F02BF80A4D0A4C641B4C
:100D8000A410A64205D170BDB300EB5898470136B8
:100D9000EEE7B300EB5898470136F2E7F40D000890
:100DA000F40D0008F40D0008F80D0008002310B53C
:100DB0009A4200D110BDCC5CC4540133F8E7030063
:100DC0008218934200D1704719700133F9E700008F
:100DD000F8B5C046F8BC08BC9E467047F8B5C0469A
:080DE000F8BC08BC9E467047F8
:0C0DE8002E37000004061F640400CA52ED
:040DF400E90000080A
:040DF800C10000082E
:100DFC0023016745AB89EFCD343731641F060601FB
:080E0C003000000000127A0022
:0400000508000BB52F
:00000001FF
