:020000040800F2
:10000000A808002069010008BB020008B702000828
:10001000B9020008B30200088D03000800000000C8
:100020000000000000000000000000003D03000888
:10003000B5020008000000003B0300083F03000871
:100040008301000883010008830100088301000880
:100050008301000883010008830100088301000870
:1000600000000000830100088301000883010008EC
:1000700083010008830100088301000800000000DC
:1000800083010008830100080000000083010008CC
:100090008301000883010008830100088301000830
:1000A0008301000883010008830100088301000820
:1000B00083010008000000000000000000000000B4
:1000C00083010008000000008301000800F002F82E
:1000D00000F03AF80AA090E8000C82448344AAF1A8
:1000E0000107DA4501D100F02FF8AFF2090EBAE8A6
:1000F0000F0013F0010F18BFFB1A43F0010318475C
:100100005C0D00007C0D0000103A24BF78C878C157
:10011000FAD8520724BF30C830C144BF04680C600D
:10012000704700000023002400250026103A28BF55
:1001300078C1FBD8520728BF30C148BF0B60704759
:100140001FB51FBD10B510BD00F07AF81146FFF7BE
:10015000F7FF00F043FC00F098F803B4FFF7F2FF5C
:1001600003BC00F09FF80000094880470948004799
:10017000FEE7FEE7FEE7FEE7FEE7FEE7FEE7FEE757
:10018000FEE7FEE704480549054A064B70470000B4
:1001900041030008CD000008A8020020A8080020A4
:1001A000A8040020A80400204FF000020429C0F099
:1001B000128010F0030C00F01B80CCF1040CBCF199
:1001C000020F18BF00F8012BA8BF20F8022BA1EBEB
:1001D0000C0100F00DB85FEAC17C24BF00F8012BD0
:1001E00000F8012B48BF00F8012B70474FF00002C8
:1001F00000B5134694469646203922BFA0E80C501D
:10020000A0E80C50B1F12001BFF4F7AF090728BFF7
:10021000A0E80C5048BF0CC05DF804EB890028BF73
:1002200040F8042B08BF704748BF20F8022B11F09C
:10023000804F18BF00F8012B704770477047704718
:10024000754600F02BF8AE4605006946534620F08F
:100250000700854618B020B5FFF794FFBDE82040A1
:100260004FF000064FF000074FF000084FF0000B72
:10027000AC46ACE8C009ACE8C009ACE8C009ACE8E1
:10028000C00921F007018D46704710B50446AFF351
:1002900000802046BDE81040FFF75FBF0048704770
:1002A0001800002001491820ABBEFEE7260002001E
:1002B0007047FEE77047FEE7FEE7704704214FF006
:1002C000904401600121206861F305102060C12085
:1002D00000F04CBD206840F0400020604FF08040AE
:1002E00000F0E6BA2068002120F03000206070475E
:1002F0004FF4801000F0DCBA01600121206861F346
:100300000510206070474FF4FA76016821F0300143
:1003100001607047216821F00101216010BD20605B
:100320004FF4FA7000F09EBAB081204600F030B869
:10033000226842F0010222607047704770477047A0
:10034000A848016841F00101016001688907FCD5F6
:10035000416821F003014160416811F00C0FFBD1AD
:100360000168A14A114001600021416041F610710D
:10037000C1624FF4801101634FF41F018160024894
:100380004FF000610160704708ED00E0FEE70000FB
:10039000B0B54218445C557800F0A6FB04480179DA
:1003A0004079684061400843B0FA80F04009B0BD30
:1003B0007800002070B54FF090402D4CFFF7A3FF60
:1003C0000221206861F30510FFF7A9FF294D56B1FE
:1003D0006068400702D42888013028800A2000F095
:1003E00041FA013EF3E72888B0F5E17F06D92248BB
:1003F00000F09AF8012818BF00F0D0FA4FF09040B2
:100400004FF4FA76016821F03001FFF775FF4FF4E1
:10041000FA7000F027FA56B16068400702D42888C5
:10042000013028800A2000F01DFA013EF3E72888F9
:10043000E0B14FF09040FFF766FF00202880206871
:1004400020F03000FFF76BFF56B16068400702D420
:100450002888013028800A2000F004FA013EF3E7E2
:10046000288818B1BDE8704000F098BA70BD00BF90
:100470000C000048A00000201C002400614900F08E
:100480000F000A6822F0F00242EA0010086070478C
:100490005C4900F007000A6822F4E06242EA0020AA
:1004A00008607047574900F007000A6822F460525C
:1004B00042EAC02008607047044901280A6822F017
:1004C000300208BF30320A60704700BF541002404B
:1004D000042828D8DFE800F00309121C2200414854
:1004E000026861F300020260704701F001003D49BB
:1004F0000A6822F4803242EA004007E001F001007D
:1005000038490A6822F0807242EA00600860704749
:100510003448026A61F30002026270473148426A5D
:1005200061F30002426270472E4A010C00F01F0086
:10053000895821FA00F000F00100704700F01F0216
:100540000123000C9340274A0129815814BF994385
:1005500019438150704700BF2A4A136868B143F4B9
:10056000803301281360136807BF23F400334FF072
:10057000007043F40033002002E023F480330020B5
:100580001360136861F39543C1F30211136013689C
:1005900061F35E731360916A21F0E0610843906239
:1005A000704700BF0F48016841F001010160016818
:1005B0008907FCD5416821F003014160416811F0D1
:1005C0000C0FFBD10168084A114001600021416015
:1005D00041F61071C1624FF4801101634FF41F01A5
:1005E0008160704700100240FFFFF2FE05490A6873
:1005F00060F301020A60704702480068C0F381009E
:10060000704700BF041002402DE9FC4705AFF14ED2
:10061000F078D8B18F4C71892046B181FFF7B8FED0
:10062000002800F005818C4D4FF480712846FFF7BB
:10063000DDFDB08928B114F8011B013805F8011B54
:10064000F8E700F02DFB0020F07025E0814C217CC4
:1006500020787D29706106D1207A0D281CD1607A1E
:10066000422815D018E0217D7D2905D1217B0D2957
:1006700002D1617B42290BD094F828107D2910D13A
:1006800094F820100D290CD194F82110422908D19A
:1006900000F0DEFA00202075A7F10C04A546BDE8A5
:1006A000F0876178A278E37801431143194319D0A8
:1006B000411E032925D9FD283AD0FE2844D0FF2821
:1006C00012D1644C04200421FFF72EFE002800F014
:1006D000AF80002030816088000400BA00F1006023
:1006E000706257E0652030815C48FFF7E7FD308994
:1006F00001303081206820F030002060002030621E
:10070000CAE7DFE801F0023B4E9C02200221B081E3
:100710005048FFF73DFE002800F08A80726A50487A
:10072000824240F28F8071894B4800F047FA31E0F5
:1007300002200221B0814748FFF72AFE002877D027
:100740004648FFF7BBFDD5E7424C04200421FFF7E4
:10075000EBFD00286CD04FF48070E178F08101202F
:10076000F070A078012808BF4FF4807171814FF0BC
:100770009040016821F030010160BFE702200221B2
:10078000B0813448FFF704FE002851D0706A344924
:10079000884257D9A7F10C04A546BDE8F04700F000
:1007A0007FBA2C4C02200221FFF7BEFD00283FD06B
:1007B0008020042164784FF09049EA46F081306946
:1007C00001303061254801600121D9F80000002C7A
:1007D00061F30510C9F8000008BF4FF4807404F1FC
:1007E0000A0020F00700ADEB0005AD4604F1030858
:1007F00028464146FFF7D8FC716A2846224600F099
:1008000093F92846214600F06FF9B088302128532B
:10081000281981702846414600F032FAD9F80000C4
:1008200020F03000C9F8000000203062D54633E7E0
:10083000A7F10C04A546BDE8F04700F04BBA012033
:10084000707051E7A7F10C04A546BDE8F04700F031
:1008500037BA00BFA4010020A400002018000048FF
:10086000FF0F0008D44900220A600A688242FCD3C4
:10087000704700BF0D490860704700BF25480168F8
:1008800041F080010160704708480168C9071CBF3A
:10089000002070470168490744BF01207047006885
:1008A000C0064FF0020058BF032070470C200240E2
:1008B00010B50446FFF7E8FF1CB1010601D1013C69
:1008C000F8E7002C08BF0420C0B210BD10B5114CD1
:1008D000216841F0020121606060FFF7FBFC2168A4
:1008E00021F00201216010BD024803490160034963
:1008F000016070470420024023016745AB89EFCDBA
:1009000010B5044CFFF714FD0160FFF7F1FCFFF791
:1009100001BD00BF102002404FF6FF714FF0807202
:10092000C0E9001270472DE9F0410E884FF0000831
:100930004FF0030C4FF0010EB5B26DB3F60727D0A0
:100940001FFA88F704687E000CFA06F39C430460E3
:100950008C790268B440224302600EFA07F24468C0
:1009600024EA020242600A794468BA4022434260A3
:1009700082689A438260CA798468B2402243826066
:10098000C2689A43C2604A79C368B2401A43C260DF
:1009900008F101086E08CFE7BDE8F0814F4901205A
:1009A0000B4AC863EE4872B6536883610A4B1B78E2
:1009B000012B1EBF0021018170470B6823F001034A
:1009C0000B608169C161116881F30888C0690047C3
:1009D0000010000878000020007C000882B03C482D
:1009E00040F253110160FFF7DDFD00200121FFF708
:1009F0006FFD0120FFF798FD0128FAD100201D218D
:100A0000FFF7AAFD02200121FFF762FD1920FFF781
:100A10008BFD0128FAD10020FFF730FD0020FFF701
:100A200041FD0020FFF734FD0120FFF745FD0220C6
:100A3000FFF7DCFDFFF7E0FD0228FBD10020FFF708
:100A40003BFD00F0ABF98D4D0220234E0121686083
:100A5000032068601F48B04720487721204C8162FE
:100A60004FF6FF71C162416941F0010141610168C6
:100A700041F001010160601C0121B04720460121C5
:100A8000B0476C462046FFF747FF0420154E21462D
:100A900000904FF08070019006F57D70FFF743FFE6
:100AA000FFF788FC4FF09040AD4C016821F0300119
:100AB0000160306820F0300030602878E87200F083
:100AC0003DF820896528FAD3FFF768FFF7E700BFF4
:100AD0000020024001001C003D0500080004004009
:100AE000110014000C000048F0B50E4A0024002547
:100AF00000238B4212D0C55C0026082E0AD2C4F314
:100B00004E076C40E40718BF5740ECB20136650849
:100B10003C46F2E7A5B201332D0AEAE79048457159
:100B20000471F0BD01A0FFFF10B500239342A8BFE0
:100B300010BDCC5CC4540133F8E700002DE9F0414E
:100B4000874D1B4C00204FF481712870286120468E
:100B5000FFF74CFB8348174E484F804626B300F002
:100B6000C9F8786801307860E87858B169892869EF
:100B70000231884218D0AA78A1190130286181F881
:100B800002210DE04046D8F80000FB280AD2A978DF
:100B9000A01980F80211701C02D128891430288114
:100BA0000136DBE700202861BDE8F041FFF72CBDEE
:100BB000A4010020FEFEFFFF240400402DE9FF47B2
:100BC00007AF06460420904691FBF0F4072000EBA7
:100BD000840020F00700ADEB0005AD462846214615
:100BE000FFF704FB0020A04205DA56F8201045F874
:100BF00020100130F7E747F8104CFFF775FE5FEA69
:100C0000885002D14046FFF761FE002047F8140CDF
:100C100047F8180C57F8180C57F8101C884210D2D7
:100C200057F8180C57F8181C55F8211008EB8000DD
:100C3000FFF766FE0320FFF71DFE57F8180C013082
:100C4000E6E7A7F10C04A546BDE8F047FFF716BE9E
:100C500010B5514804214FF09044016001212068F3
:100C600061F30510092120600448083000F008F8FD
:100C7000FFF738FB3A48016210BD00BF00000020BA
:100C800070B50C4605460026A642A8BF70BDA85DFB
:100C900000F06CF83420FFF7E5FD0136F4E70000C2
:100CA00010B53D4804214FF09044FFF725FB30205C
:100CB00000F05CF8FFF716FB2948016210BD00BF89
:100CC00010B53548FFF7FAFAFFF70CFB244801622C
:100CD00010BD00BF10B5304804214FF09044FFF71D
:100CE0000BFBC22000F042F8FFF7FCFA1C4801623F
:100CF00010BD00BFF8B51A4C00201A4D1A4EA07056
:100D000044F621603168490705D429688142F9D346
:100D100065202081F8BD20783168490705D529680C
:100D2000FB29F9D30028F7D0F8BD1A20FFF79AFD68
:100D30000027082F0BD03420FFF794FDA0783168EE
:100D4000C1F38001B94001370843A070F1E71A20D0
:100D5000FFF788FD01202070A078A071A861F8BD80
:100D6000780000202404004010000048F8B50A4D27
:100D70000426044600272E613420FFF773FD072F59
:100D800007D8E007284608BF10300660640801371E
:100D9000F2E704202860F8BD1800004870B5264D21
:100DA000264CFFF729FC022808D0D0BB206D800517
:100DB00037D5E06A800148BF224D32E02068A16A41
:100DC000C0F3004000290BD421682268C2F34172AD
:100DD000C1F383410AB90F2918D11201013216E07B
:100DE000A16AA26AA36A164EC1F30311C2F30822D4
:100DF00003F0070318B12068800358BF2E4601FA9C
:100E000003F006FB02F1B1FBF0F50AE00222114407
:100E100020B12068800301D44D4302E0084801FB63
:100E200000F5094809A205602168C1F30311515C6E
:100E300025FA01F1016070BD00127A000410024031
:100E400000093D00006CDC021400002000000000DE
:100E5000000000000102030406070809800E0008D4
:100E6000000000201800000008010008980E00088B
:100E70001800002090080000240100080000000075
:100E80000200000001000000343731001F06060197
:080E90003000000000127A009E
:020000041FFFDC
:0CF80000A55AFF00FF00FF00FF00FF0002
:04000005080000CD22
:00000001FF
