:020000040800F2
:10000000A808002069010008BB020008B702000828
:10001000B9020008B30200088903000800000000CC
:10002000000000000000000000000000390300088C
:10003000B502000800000000370300083B03000879
:100040008301000883010008830100088301000880
:100050008301000883010008830100088301000870
:1000600000000000830100088301000883010008EC
:1000700083010008830100088301000800000000DC
:1000800083010008830100080000000083010008CC
:100090008301000883010008830100088301000830
:1000A0008301000883010008830100088301000820
:1000B00083010008000000000000000000000000B4
:1000C00083010008000000008301000800F002F82E
:1000D00000F03AF80AA090E8000C82448344AAF1A8
:1000E0000107DA4501D100F02FF8AFF2090EBAE8A6
:1000F0000F0013F0010F18BFFB1A43F0010318475C
:10010000280D0000480D0000103A24BF78C878C1BF
:10011000FAD8520724BF30C830C144BF04680C600D
:10012000704700000023002400250026103A28BF55
:1001300078C1FBD8520728BF30C148BF0B60704759
:100140001FB51FBD10B510BD00F07AF81146FFF7BE
:10015000F7FF00F035FC00F098F803B4FFF7F2FF6A
:1001600003BC00F09FF80000094880470948004799
:10017000FEE7FEE7FEE7FEE7FEE7FEE7FEE7FEE757
:10018000FEE7FEE704480549054A064B70470000B4
:100190003D030008CD000008A8020020A8080020A8
:1001A000A8040020A80400204FF000020429C0F099
:1001B000128010F0030C00F01B80CCF1040CBCF199
:1001C000020F18BF00F8012BA8BF20F8022BA1EBEB
:1001D0000C0100F00DB85FEAC17C24BF00F8012BD0
:1001E00000F8012B48BF00F8012B70474FF00002C8
:1001F00000B5134694469646203922BFA0E80C501D
:10020000A0E80C50B1F12001BFF4F7AF090728BFF7
:10021000A0E80C5048BF0CC05DF804EB890028BF73
:1002200040F8042B08BF704748BF20F8022B11F09C
:10023000804F18BF00F8012B704770477047704718
:10024000754600F02BF8AE4605006946534620F08F
:100250000700854618B020B5FFF794FFBDE82040A1
:100260004FF000064FF000074FF000084FF0000B72
:10027000AC46ACE8C009ACE8C009ACE8C009ACE8E1
:10028000C00921F007018D46704710B50446AFF351
:1002900000802046BDE81040FFF75FBF0048704770
:1002A0001800002001491820ABBEFEE7260002001E
:1002B0007047FEE77047FEE7FEE770471020012118
:1002C000A061206861F309202060C12000F034BDE6
:1002D000206840F0400020604FF0804000F0DABA23
:1002E00020F440702060E06861F30920E0604FF482
:1002F000FA7000F0A9BA4FF4801000F0CBBA206871
:10030000002120F4407020607047B081204600F04A
:100310003DB8216821F00101216010BD10200121AC
:10032000A061206861F3092020607047226842F0D4
:10033000010222607047704770477047A548016806
:1003400041F00101016001688907FCD5416821F095
:1003500003014160416811F00C0FFBD101689E4A16
:10036000114001600021416041F61071C1624FF4FB
:10037000801101634FF41F01816002484FF000615A
:100380000160704708ED00E0FEE70000B0B54218DC
:10039000445C557800F096FB044801794079684048
:1003A00061400843B0FA80F04009B0BD78000020F9
:1003B00070B52B4C02214FF4FA762068FFF790FFBE
:1003C000284D56B12069C00602D428880130288003
:1003D0000A2000F039FA013EF3E72888B0F5E17F02
:1003E00006D9214800F098F8012818BF00F0C8FA93
:1003F000206801214FF4FA76FFF772FF56B12069A9
:10040000C00602D42888013028800A2000F01CFA97
:10041000013EF3E7288808B320684FF4FA7620F409
:100420004070206000202880E06820F44070E06088
:100430004FF4FA7000F008FA56B12069C00602D4F1
:100440002888013028800A2000F0FEF9013EF3E7F9
:10045000288818B1BDE8704000F092BA70BD00BFA6
:1004600000040048A00000201C002400614900F0A6
:100470000F000A6822F0F00242EA0010086070479C
:100480005C4900F007000A6822F4E06242EA0020BA
:1004900008607047574900F007000A6822F460526C
:1004A00042EAC02008607047044901280A6822F027
:1004B000300208BF30320A60704700BF541002405B
:1004C000042828D8DFE800F00309121C2200414864
:1004D000026861F300020260704701F001003D49CB
:1004E0000A6822F4803242EA004007E001F001008D
:1004F00038490A6822F0807242EA0060086070475A
:100500003448026A61F30002026270473148426A6D
:1005100061F30002426270472E4A010C00F01F0096
:10052000895821FA00F000F00100704700F01F0226
:100530000123000C9340274A0129815814BF994395
:1005400019438150704700BF2A4A136868B143F4C9
:10055000803301281360136807BF23F400334FF082
:10056000007043F40033002002E023F480330020C5
:100570001360136861F39543C1F3021113601368AC
:1005800061F35E731360916A21F0E0610843906249
:10059000704700BF0F48016841F001010160016828
:1005A0008907FCD5416821F003014160416811F0E1
:1005B0000C0FFBD10168084A114001600021416025
:1005C00041F61071C1624FF4801101634FF41F01B5
:1005D0008160704700100240FFFFF2FE05490A6883
:1005E00060F301020A60704702480068C0F38100AE
:1005F000704700BF041002402DE9FC4705AFEE4EE6
:10060000F078D8B18C4C71892046B181FFF7BEFEDD
:10061000002800F00081894D4FF480712846FFF7D3
:10062000E5FDB08928B114F8011B013805F8011B5C
:10063000F8E700F021FB0020F07025E07E4C217CE3
:1006400020787D29706106D1207A0D281CD1607A2E
:10065000422815D018E0217D7D2905D1217B0D2967
:1006600002D1617B42290BD094F828107D2910D14A
:1006700094F820100D290CD194F82110422908D1AA
:1006800000F0D4FA00202075A7F10C04A546BDE8BF
:10069000F0876178A278E37801431143194319D0B8
:1006A000411E032925D9FD283AD0FE2844D0FF2831
:1006B00012D1614C04200421FFF727FE002800F02E
:1006C000AA80002030816088000400BA00F1006038
:1006D000706256E065203081594CFFF7EFFD30899C
:1006E00001303081206820F44070206000203062AA
:1006F000CAE7DFE801F0023A4D9702200221B081FB
:100700004D48FFF743FE002800F08580726A4D488F
:10071000824240F28A807189484800F03DFA30E018
:1007200002200221B0814448FFF730FE002872D039
:10073000E34CFFF7C3FDD5E73F4C04200421FFF74E
:10074000E4FD002867D04FF48070E178F08101204B
:10075000F070A0780128DA4808BF4FF480717181E9
:10076000016821F440710160C0E702200221B081DC
:100770003148FFF70BFE00284DD0706A314988429E
:1007800053D9A7F10C04A546BDE8F04700F074BAB0
:10079000294C02200221FFF7B8FDE0B38020C84AAF
:1007A00064780121E946F081306992460130306178
:1007B00010209061002C106861F30920106008BFC0
:1007C0004FF4807404F10A0020F00700ADEB00053F
:1007D000AD4604F1030828464146FFF7E5FC716A7F
:1007E0002846224600F08EF92846214600F06AF994
:1007F000B08830212853281981702846414600F0DE
:100800002BFADAF8000020F44070CAF8000000204B
:100810003062CD4638E7A7F10C04A546BDE8F047A5
:1008200000F040BA0120707056E7A7F10C04A5460D
:10083000BDE8F04700F02CBAA4010020A40000207D
:1008400000040048FF0F0008D24900220A600A682D
:100850008242FCD3704700BF0D490860704700BF5B
:100860002548016841F0800101607047084801682F
:10087000C9071CBF002070470168490744BF012019
:1008800070470068C0064FF0020058BF0320704751
:100890000C20024010B50446FFF7E8FF1CB101062A
:1008A00001D1013CF8E7002C08BF0420C0B210BD04
:1008B00010B5114C216841F0020121606060FFF722
:1008C00007FD216821F00201216010BD02480349A3
:1008D000016003490160704704200240230167451D
:1008E000AB89EFCD10B5044CFFF720FD0160FFF799
:1008F00002FDFFF70EBD00BF102002404FF6FF7152
:100900004FF08072C0E9001270472DE9F0410E8867
:100910004FF000084FF0030C4FF0010EB5B26DB36D
:10092000F60727D01FFA88F704687E000CFA06F352
:100930009C4304608C790268B440224302600EFA42
:1009400007F2446824EA020242600A794468BA4025
:100950002243426082689A438260CA798468B240C6
:1009600022438260C2689A43C2604A79C368B24037
:100970001A43C26008F101086E08CFE7BDE8F081B4
:100980004D4901200B4AC863E84872B65368836139
:100990000A4B1B78012B1EBF0021018170470B6899
:1009A00023F001030B608169C161116881F308883C
:1009B000C06900470010000878000020007C000893
:1009C00082B03A4840F253110160FFF7E3FD002086
:1009D0000121FFF775FD0120FFF79EFD0128FAD1E7
:1009E00000201D21FFF7B0FD02200121FFF768FD67
:1009F0001920FFF791FD0128FAD10020FFF736FDFD
:100A00000020FFF747FD0020FFF73AFD0120FFF728
:100A10004BFD0220FFF7E2FDFFF7E6FD0228FBD1C8
:100A20000020FFF741FD00F09FF98A4E0220214D82
:100A300001217060032070601D48A8471E4877217F
:100A40001E4C81624FF6FF71C162416941F00101A4
:100A50004161016841F001010160601C0121A8476A
:100A600020460121A8476C462046FFF747FF10208B
:100A7000924D214600904FF0807001902846FFF77C
:100A800044FFFFF795FC2868A84C20F440702860CC
:100A9000E86820F44070E8603078F07200F03CF8CC
:100AA00020896528FAD3FFF76BFFF7E700200240A3
:100AB00001001C002D050008000400401100140076
:100AC00000040048F0B50E4A0024002500238B42A4
:100AD00012D0C55C0026082E0AD2C4F34E076C4023
:100AE000E40718BF5740ECB2013665083C46F2E710
:100AF000A5B201332D0AEAE78C4845710471F0BDB7
:100B000001A0FFFF10B500239342A8BF10BDCC5C2D
:100B1000C4540133F8E700002DE9F041834D1B4C2C
:100B200000204FF48171287028612046FFF75EFB9A
:100B30007F48174E474F804626B300F0C1F87868CB
:100B400001307860E87858B16989286902318842B3
:100B500018D0AA78A1190130286181F802210DE08E
:100B60004046D8F80000FB280AD2A978A01980F8DE
:100B70000211701C02D12889143028810136DBE76C
:100B800000202861BDE8F041FFF736BDA401002038
:100B9000FEFEFFFF240400402DE9FF4707AF064695
:100BA0000420904691FBF0F4072000EB840020F035
:100BB0000700ADEB0005AD4628462146FFF716FBC2
:100BC0000020A04205DA56F8201045F82010013028
:100BD000F7E747F8104CFFF779FE5FEA885002D13B
:100BE0004046FFF765FE002047F8140C47F8180C44
:100BF00057F8180C57F8101C884210D257F8180CE8
:100C000057F8181C55F8211008EB8000FFF76AFE12
:100C10000320FFF721FE57F8180C0130E6E7A7F193
:100C20000C04A546BDE8F047FFF71ABE10B5234CEB
:100C300010200121A061206861F3092009212060B2
:100C40000448083000F008F8FFF759FB3748016204
:100C500010BD00BF0000002070B50C460546002600
:100C6000A642A8BF70BDA85D00F066F83420FFF76B
:100C7000EBFD0136F4E7000010B5104CFFF74EFB1A
:100C8000302000F059F8FFF73AFB2848016210BD08
:100C900010B50A4CFFF712FBFFF731FB2348016246
:100CA00010BD00BF10B5054CFFF738FBC22000F0A7
:100CB00043F8FFF724FB1D48016210BD0004004803
:100CC000F8B51A4C00201A4D1A4EA07044F6216057
:100CD0003168C90605D429688142F9D3652020818D
:100CE000F8BD20783168C90605D52968FB29F9D3F4
:100CF0000028F7D0F8BD1A20FFF7A6FD0027082F1F
:100D00000BD03420FFF7A0FDA0783168C1F30011AB
:100D1000B94001370843A070F1E71A20FFF794FDAE
:100D200001202070A078A071A861F8BD7800002093
:100D30002404004010040048F8B50A4D102604466B
:100D400000272E613420FFF77FFD072F07D8E0072B
:100D5000284608BF1030066064080137F2E710200B
:100D60002860F8BD1804004870B5264D264CFFF7E2
:100D70003BFC022808D0D0BB206D800537D5E06A47
:100D8000800148BF224D32E02068A16AC0F30040D4
:100D900000290BD421682268C2F34172C1F3834158
:100DA0000AB90F2918D11201013216E0A16AA26A0C
:100DB000A36A164EC1F30311C2F3082203F007031E
:100DC00018B12068800358BF2E4601FA03F006FBD5
:100DD00002F1B1FBF0F50AE00222114420B12068D3
:100DE000800301D44D4302E0084801FB00F50948A7
:100DF00009A205602168C1F30311515C25FA01F1D4
:100E0000016070BD00127A000410024000093D002C
:100E1000006CDC0214000020000000000000000054
:100E20000102030406070809480E0008000000201C
:100E30001800000008010008600E000818000020DB
:100E400090080000240100081400000001000000C8
:100E5000343731001F0606013000000000127A000E
:020000041FFFDC
:0CF80000A55AFF00FF00FF00FF00FF0002
:04000005080000CD22
:00000001FF
