:020000040800F2
:1000000000C000207D0B0008550B0008570B0008AE
:10001000590B00085B0B00085D0B00080000000096
:100020000000000000000000000000005F0B00085E
:10003000610B000800000000630B0008650B00085E
:10004000CD0B0008CD0B0008CD0B0008CD0B000830
:10005000CD0B0008CD0B0008CD0B0008CD0B000820
:10006000CD0B0008CD0B0008CD0B0008CD0B000810
:10007000CD0B0008CD0B0008CD0B0008CD0B000800
:10008000CD0B0008CD0B0008CD0B0008CD0B0008F0
:10009000CD0B0008CD0B0008CD0B0008CD0B0008E0
:1000A000CD0B0008CD0B0008CD0B0008CD0B0008D0
:1000B000CD0B00080000000000000000CD0B000880
:1000C000CD0B0008CD0B0008CD0B0008CD0B0008B0
:1000D000CD0B0008CD0B0008CD0B0008CD0B0008A0
:1000E000CD0B0008CD0B0008000000000000000050
:1000F0000000000000000000000000000000000000
:1001000000000000CD0B000800000000CD0B00082F
:100110000000000000000000CD0B0008CD0B00081F
:10012000CD0B0008CD0B0008CD0B0008CD0B00084F
:10013000CD0B0008000000000000000000000000DF
:10014000CD0B0008CD0B0008CD0B0008000000000F
:10015000CD0B0008CD0B0008CD0B0008CD0B00081F
:10016000CD0B0008CD0B0008CD0B000800000000EF
:10017000CD0B0008CD0B00080000000000000000BF
:0C018000CD0B0008CD0B0008CD0B0008D3
:10018C0010B5054C237833B9044B13B10448AFF3C5
:10019C0000800123237010BD180000200000000017
:1001AC00F80D000808B5034B1BB103490348AFF326
:1001BC00008008BD000000001C000020F80D0008A5
:1001CC002DE9F0410029B8BF03318E1021F0030155
:1001DC00073184B021F0070100AFADEB010DE8460B
:1001EC000546144600213246404600F0F7FD002239
:1001FC00B24205F1040540DB394B7E601A69D50328
:10020C00FCD45A69002A05DA364A12689A60364AD2
:10021C0012689A60C4F30A03CBB9314B5A6922F4C1
:10022C007E725A615A6942F002025A615969220A75
:10023C0002F4FC720A435A615A6942F480325A61E0
:10024C001A69D003FCD45A6922F002025A61244A7A
:10025C00136943F0800313610023BB600120FB6032
:10026C001346FD6879688D4219D35A69103742F0EC
:10027C0000425A61BD46BDE8F08115F8023C15F804
:10028C00011C1B0443EA016315F8041C0B4315F80D
:10029C00031C43EA012348F822300132A8E75969CC
:1002AC0041F001015961FD68B96858F825500D51AC
:1002BC00FD68B9680135043158F825500D5119699C
:1002CC00C903FCD419691861516921F0010151610C
:1002DC00B9680831B960F9680231F960C1E700BF4B
:1002EC0000200240000000200400002010B5002374
:1002FC00934200DB10BDCC5CC4540133F8E74FF0E3
:10030C009043DA68042393FAA3F3B3FA83F303213B
:10031C005B0001FA03F322EA0302042393FAA3F32A
:10032C00B3FA83F35B0098404FF090431043D860CE
:10033C007047000000B5102289B00DEB02000021BF
:10034C0000F04CFD0B4BDA6C42F00102DA64DB6C12
:10035C0003F001030193019B0422002302A94FF037
:10036C009040CDE90223069300F02BFC09B05DF818
:10037C0004FB00BF001002404FF0804300225A6281
:10038C005A6A8242FCD3704772B6094B094A1B6801
:10039C001360094A1278012A03D0084B00221A80F4
:1003AC007047074A1360074A126882F30888184797
:1003BC00041000088401002000F80108420000200D
:1003CC00BC02002000100008F0B5154C0022227071
:1003DC006270134615464AF2010CA94208DC02B1C0
:1003EC002380104B22781A700F4B62781A70F0BD74
:1003FC00465D082286EA030717F0010F4FEA530304
:10040C0018BF83EA0C0302F1FF3218BF9BB212F043
:10041C00FF024FEA5606EDD101350122DDE700BFA0
:10042C00340000208A0100208901002038B50346E1
:10043C000B44455C5C78FFF7C7FF064B1B78AB425F
:10044C0005D1054B1878031B5842584138BD002084
:10045C00FCE700BF8A0100208901002008B5FFF7E6
:10046C0069FF024B00221A6008BD00BFC4020020C5
:10047C004FF0904304221B6892FAA2F2B2FA82F275
:10048C000321520001FA02F223EA0202042393FA36
:10049C00A3F3B3FA83F35B00012101FA03F31343D3
:1004AC004FF090421360704770B51E4C1E480023ED
:1004BC0023704FF090424FF0804113695B0724D5B5
:1004CC001A4D2A784FF090434FF08040196911F083
:1004DC00040121D11A20FFF74FFF4FF09046342032
:1004EC00FFF74AFF33692278C3F380038B40013155
:1004FC00134308292370F2D11A20FFF73DFF012383
:10050C002B700B4B22781A7005E04B6A8342D4D9BE
:10051C00084B65221A8070BD416AFA29D6D9002A87
:10052C00D4D0F8E745000020400D03004400002023
:10053C00C20200204200002070B54FF09045042606
:10054C000446AE6208213420FFF716FFE30701F1E1
:10055C00FF314CBFAE61AE6211F0FF014FEA5404A3
:10056C00F1D13420FFF708FF4FF0904304229A6139
:10057C0070BD08B5FFF77CFF3020FFF7DDFFBDE84D
:10058C000840FFF76BBF08B5FFF772FFC120FFF7FC
:10059C00D3FFBDE80840FFF761BF08B5FFF768FF60
:1005AC00C220FFF7C9FFBDE80840FFF757BF70B581
:1005BC0006460D460024AC4200DB70BD305DFFF7F3
:1005CC00BBFF3420FFF7D8FE0134F4E708B5FFF782
:1005DC004FFF04480921FFF7EAFFBDE80840FFF789
:1005EC003DBF00BF08000020F8B58E4E8E4C33780E
:1005FC0000AFF3B18D4B8E4D198829802046FFF743
:10060C0015FFB0B14FF4967200218A4800F0E6FB5A
:10061C002988884A0023994205DCFFF7AAFF0023AA
:10062C003370BD46F8BD14F8010B02F8010B013311
:10063C00F1E7227C804D23782B607D2A0AD1227A27
:10064C000D2A07D1627A422A04D1FFF7BFFF00239B
:10065C002375E6E7227D7D2A05D1227B0D2A02D166
:10066C00627B422AF1D094F828207D2A07D194F895
:10067C0020200D2A03D194F82120422AE5D0FBB981
:10068C00A27863781343E278134302D16B4B652253
:10069C001A802B68FF2B44D1654B63486488674DE7
:1006AC0004211980FFF7C2FE002834D064BA00235D
:1006BC00A4B22B80A400624B04F100641C6012E015
:1006CC00012B19D15A4B584802211980FFF7AEFE65
:1006DC0078B15B4B1A685B4B9A4207D9534B554820
:1006EC001988FFF76DFDFFF744FF9AE7FFF74BFF03
:1006FC0097E7FFF752FF94E7052BCAD14C4B4A48BA
:10070C0002211980FFF792FE0028C2D04C4B1A68C8
:10071C0002F58032E2E7FFF740FF2B8801332B8094
:10072C007FE7FE2B14D1424B3F4804211980FFF781
:10073C007DFE0028DDD0A3783C4A012B14BFE37862
:10074C004FF48073138001233370FFF787FE68E743
:10075C002378FD2B0CD1364B334802211980FFF73F
:10076C0065FE28B1FFF784FEC120FFF7E5FEECE73C
:10077C002968022906D12E4B2B481980FFF756FE0B
:10078C000028B0D12B68042B0CD12F4B01221A70EE
:10079C00FFF76EFEC120FFF7CFFE284A1388013306
:1007AC001380D2E7032BF3D1214B284A64781E48DF
:1007BC00022119801368002C03F1010308BF4FF4C8
:1007CC0080741360FFF732FE002892D0FFF750FEC2
:1007DC0004F10A0323F00703E51C6E46ADEB030D91
:1007EC002A460021684600F0F9FA154B2246196892
:1007FC006846FFF77BFD21466846FFF7E5FD144B85
:10080C001B780DF80430134B6C441B786370302349
:10081C006846A3702946FFF7CAFEFFF71FFEB546D0
:10082C00FFE600BF410000208B01002048000020A3
:10083C00C00200204A0000203800002042000020A6
:10084C0078010020FF0F0008400000203C00002031
:10085C008A010020890100202DE9F84300251E4B58
:10086C001E4C1F4825604FF4967229461D7000F0EF
:10087C00B5FA1B4EDFF874901A4FDFF87480FFF74F
:10088C0013FE99F8003083B1174A2368128802329C
:10089C009A4210D03A783270013323600135B5F5A5
:1008AC00967F06F10106EAD105E04FF08042526ACC
:1008BC00FA2A04D92360BDE8F843FFF795BE3B78CC
:1008CC00337040F201139D4202BFB8F8003014336C
:1008DC00A8F80030E2E700BF440000203C000020F4
:1008EC008B01002045000020480000204100002022
:1008FC004200002010B50A4C0A4930222046FFF76E
:10090C00F5FCA378023BDBB2FC2B08D80123A370C7
:10091C002046044ABDE810403021FFF751BC10BD01
:10092C008B01002000F8010838B50220FFF7E7FC26
:10093C004FF4FA70FFF720FD4FF4FA7400214FF0DA
:10094C0090452B695A0758BF01314FF00A0058BF28
:10095C0089B2FFF711FD013CF3D1D9B12046FFF765
:10096C00CEFC4FF4FA70FFF707FD4FF090454FF4B3
:10097C00FA712B695B0758BF01344FF00A0058BF5E
:10098C00A4B2FFF7F9FC0139F3D11CB1BDE8384032
:10099C00FFF7FABC38BD000008B52C4B1A6822F0E2
:1009AC00070242F004021A601A6802F00702042AD5
:1009BC00FAD1274A136823F4C06343F4007313601D
:1009CC00244B1A6842F001021A601A689107FCD590
:1009DC001A6842F008021A601A6822F0F00242F01B
:1009EC0060021A605A6822F47F425A60D9681A4A27
:1009FC000A4042F4205242F00102DA60DA6842F016
:100A0C008072DA601A6842F080721A601A68920179
:100A1C00FCD59A6842F003029A609A6802F00C02C4
:100A2C000C2AFAD19A680D4822F0F0029A609A6862
:100A3C0022F4E0629A609A6822F460529A6000F0A4
:100A4C0095F9BDE80840054800F09EB90020024029
:100A5C0000700040001002408C80FFF900B4C40408
:100A6C00344C354A236E00B543F001032366236EE4
:100A7C0089B003F001030193019BA36D43F08053F4
:100A8C00A365A36D03F080530093009B136843F49C
:100A9C0080731360FFF780FFFFF74CFC14220021DA
:100AAC0003A800F09BF9A36D43F00103A365A36DAC
:100ABC0003F001030293029B4F2303A90024ADF81A
:100ACC000C304FF080404FF0FF33CDE904430694D7
:100ADC0000F012F94FF0804302201A6822F08002D5
:100AEC001A609A6822F4A03222F007029A605A68BF
:100AFC0022F070025A609A6822F080029A601A689A
:100B0C0042F001021A60FFF7FAFBFFF70DFF2046D7
:100B1C00FFF7F5FB094B0A4C1A780A4BDA70FFF712
:100B2C00E9FEFFF799FE2388642BFAD9FFF72CFC1A
:100B3C00F7E700BF00100240002002401100002027
:100B4C004200002008000020FEE7FEE7FEE7FEE77B
:100B5C00FEE770477047704770470000034AD2F8B1
:100B6C00883043F47003C2F88830704700ED00E021
:100B7C00DFF834D0FFF7F2FF0C480D490D4A002383
:100B8C0002E0D458C4500433C4188C42F9D30A4A36
:100B9C000A4C002301E013600432A242FBD300F0A4
:100BAC00F9F8FFF75DFFFEE700C000200000002011
:100BBC0018000020180E000818000020C8020020A1
:100BCC00FEE72DE9F04F02460D6895FAA5F44FF0BB
:100BDC00010EB4FA84F403274FF00F0C6FEA0508EA
:100BEC0035FA04F001D1BDE8F08F0EFA04F32B4076
:100BFC0068D04868461E012E1ED8966893FAA3F951
:100C0C00B9FA89F94FEA490907FA09F926EA0909F3
:100C1C0093FAA3FA8E68BAFA8AFA4FEA4A0A06FAE3
:100C2C000AF646EA09069660566808EA0609CE688E
:100C3C006E4349EA06065660D66893FAA3F9B9FAE8
:100C4C0089F94FEA490907FA09F926EA090993FAD9
:100C5C00A3FA0E69BAFA8AFA4FEA4A0A06FA0AF6AF
:100C6C0046EA09060228D66018D1FF2BD1F814A049
:100C7C002AD8D2F8209093FAA3F6B6FA86F6B600E4
:100C8C000CFA06F629EA060993FAA3F6B6FA86F6E2
:100C9C00B6000AFA06F646EA09061662D2F8009081
:100CAC0093FAA3F6B6FA86F6760007FA06F629EA60
:100CBC00060693FAA3F3B3FA83F35B0000FA03F38B
:100CCC003343136001348BE7D2F824B04FEA132975
:100CDC0099FAA9F6B6FA86F6B6000CFA06F62BEADD
:100CEC00060B99FAA9F6B6FA86F6B6000AFA06F6D3
:100CFC0046EA0B065662D1E71A4A0368904210B5D1
:100D0C0002D0B0F1804F09D14C6823F070039042AF
:100D1C0043EA040309D0B0F1804F06D0124A904246
:100D2C0003D002F58062904203D1CA6823F4407369
:100D3C00134303608B68C3620B888362094B984230
:100D4C0007D003F5A053984203D003F58063984273
:100D5C0001D10B690363436943F001034361002034
:100D6C0010BD00BF002C0140004001404FF47A73CD
:100D7C00B0FBF3F0034B0022013858609A60052257
:100D8C001A60704710E000E0014B1860704700BF1C
:100D9C001400002070B50D4D0D4C641BA4100026E2
:100DAC00A64209D10B4D0C4C00F020F8641BA4108A
:100DBC000026A64205D170BD55F8043B9847013674
:100DCC00EEE755F8043B98470136F2E7100E0008A1
:100DDC00100E0008100E0008140E00080244034602
:100DEC00934200D1704703F8011BF9E7F8B500BF37
:100DFC00F8BC08BC9E467047F8B500BFF8BC08BCF0
:040E0C009E46704747
:040E1000B101000824
:040E14008D01000844
:100E180023016745AB89EFCD343731642B060601D2
:080E28003002000000093D004A
:0400000508000B7D67
:00000001FF
