:020000040800F2
:10000000B808002069010008F1040008ED040008A8
:10001000EF040008B3020008B70700080000000062
:1000200000000000000000000000000005060008BD
:10003000B50200080000000095050008070600084A
:100040008301000883010008830100088301000880
:100050008301000883010008830100088301000870
:1000600000000000830100088301000883010008EC
:1000700083010008830100088301000800000000DC
:1000800083010008830100080000000083010008CC
:100090008301000883010008830100088301000830
:1000A0008301000883010008830100088301000820
:1000B00083010008000000000000000000000000B4
:1000C00083010008000000008301000800F002F82E
:1000D00000F03AF80AA090E8000C82448344AAF1A8
:1000E0000107DA4501D100F02FF8AFF2090EBAE8A6
:1000F0000F0013F0010F18BFFB1A43F0010318475C
:10010000C80D0000E80D0000103A24BF78C878C17F
:10011000FAD8520724BF30C830C144BF04680C600D
:10012000704700000023002400250026103A28BF55
:1001300078C1FBD8520728BF30C148BF0B60704759
:100140001FB51FBD10B510BD00F07AF81146FFF7BE
:10015000F7FF00F0F1FC00F098F803B4FFF7F2FFAE
:1001600003BC00F09FF80000094880470948004799
:10017000FEE7FEE7FEE7FEE7FEE7FEE7FEE7FEE757
:10018000FEE7FEE704480549054A064B70470000B4
:1001900009060008CD000008B8020020B8080020B9
:1001A000B8040020B80400204FF000020429C0F079
:1001B000128010F0030C00F01B80CCF1040CBCF199
:1001C000020F18BF00F8012BA8BF20F8022BA1EBEB
:1001D0000C0100F00DB85FEAC17C24BF00F8012BD0
:1001E00000F8012B48BF00F8012B70474FF00002C8
:1001F00000B5134694469646203922BFA0E80C501D
:10020000A0E80C50B1F12001BFF4F7AF090728BFF7
:10021000A0E80C5048BF0CC05DF804EB890028BF73
:1002200040F8042B08BF704748BF20F8022B11F09C
:10023000804F18BF00F8012B704770477047704718
:10024000754600F02BF8AE4605006946534620F08F
:100250000700854618B020B5FFF794FFBDE82040A1
:100260004FF000064FF000074FF000084FF0000B72
:10027000AC46ACE8C009ACE8C009ACE8C009ACE8E1
:10028000C00921F007018D46704710B50446AFF351
:1002900000802046BDE81040FFF75FBF0048704770
:1002A0001800002001491820ABBEFEE7260002001E
:1002B0007047FEE77047000028490860704700BF9C
:1002C000B0B504463A4800212044B1EB103F14D1A8
:1002D00000F019F9042811D1364D286840F00200C9
:1002E00028606C60286840F04000286000F00BF93E
:1002F000296821F00201296000E004202E496FF0F6
:100300007842096802EB8121A14213D300F03AF947
:1003100004280FD1274D286840F0020028606C6047
:10032000286840F04000286000F02CF9296821F08E
:1003300002012960B0BD00BF08480168C9071CBFA1
:10034000012070470168490744BF022070470068D8
:10035000C0064FF0030058BF042070470C20024035
:10036000144800F0E3B800BF7CB50C4610490546C0
:10037000002001902944B0EB113F09D100F0D2F8E0
:10038000042806D10B4E00F0F4F800F0DAF800E093
:100390000420094900F0E2F808D300F0F7F8042837
:1003A00004D1044E00F0E5F800F0CBF87CBD00BFAE
:1003B000001C00E010200240E0F7FF1F0248034944
:1003C0000160034901607047042002402301674532
:1003D000AB89EFCD10B50446FFF7AEFF24B1C1B233
:1003E000012901D1013CF7E7002C08BF0520C0B26C
:1003F00010BD10B50446FFF79FFF24B1C1B201291B
:1004000001D1013CF7E7002C08BF0520C0B210BDA8
:100410002DE9F04F91F803904FF0030EB9F1040F5E
:1004200024BF4FF0000981F80390A9F1010B91F866
:1004300005A0BAF1030F24BF4FF0000A81F805A010
:1004400091F804C0BCF1020F24BF4FF0000C81F8FA
:1004500004C091F80280A8F10102022A24BF4FF0E3
:10046000020881F802800988002701240025102D48
:1004700008BFBDE8F08F04FA05F20A4233D0BBF1A1
:10048000010F1DD8838F934383870EFA07F3B8F1CA
:10049000010F866826EA0303836005D8866808FA98
:1004A00007F33343836002E0838F1343838783889A
:1004B000D2431A4082800CFA05F283881A43828064
:1004C00003680EFA07F29343036009FA07F306681C
:1004D00033430360C36823EA0202C2600AFA07F2E8
:1004E000C3681A43C26002370135C0E7FEE7FEE782
:1004F000704710200121A061206861F3092020606D
:10050000C12000F0C9BC4FF08050FFF772BF20F44B
:1005100040702060E06861F30920E0604FF4FA70F9
:1005200000F0E0BA4FF47040FFF763BF016841F09C
:100530008001016070472068002120F44070206035
:100540007047316821F001013160704710200121AE
:10055000A061206861F30920206070476FF0784245
:10056000096802EB8121A9427047B081204600F062
:1005700023B9306840F0010030604FF470402C60C7
:10058000FFF737BF4FF08050FFF724BF4FF47040A4
:10059000FFF720BF70470000044A002911680CBF14
:1005A00021EA000008431060704700BF14100240A9
:1005B000044A002911680CBF21EA000008431060BA
:1005C000704700BF1C10024001224A49B2EB501F85
:1005D00004D04209022A14BF24312031096800F0F6
:1005E0001F0021FA00F000F00100704704490128C3
:1005F0000A6822F0300208BF30320A60704700BF3C
:1006000054100240704770471CB53A4C3A493D4A75
:10061000206840F001002060606808403749606051
:10062000206808402060206820F480202060344842
:10063000616801406160216B114021634FF41F012B
:10064000A160002101910091216841F00101216028
:100650004FF6FF71226802F002020092019A013205
:100660000192009A12B9019A8A42F3D1216889074E
:1006700054BF0021012100910099012934D1224960
:1006800040F2531200F10C600A60616861606168B9
:1006900021F46051616061686160616821F4E0612A
:1006A0006160616861606168084018496060606805
:1006B00008436060206840F08070206020688001FE
:1006C000FCD50120FFF792FF606820F00300606016
:1006D000606840F002006060606800F00C0008286C
:1006E000FAD10020FFF782FF09484FF00061016056
:1006F0001CBD00BF001002400C00FFE8FFFFF6FE2B
:10070000FFFF001700FFFEFE002002400000342023
:1007100008ED00E0002918BF0121028822F0010243
:100720001144018070470000B0B5184C038804F5EF
:100730008E3290420ED0164DA8420BD0154DA842D5
:1007400008D0154DA84205D0144DA84202D0144D32
:10075000A84203D18D8823F070032B43A04203D01D
:100760008C8923F440732343038090428B68C362D7
:100770000B88038505D0094A904202D0084A90426E
:1007800001D1897B018601218182B0BD001000402A
:1007900000040040002000400040014000480140AB
:1007A0000044014000214FF6FF7281810180817376
:1007B000C0E901127047FEE7B0B54218445C5578B5
:1007C00000F012FADA480179407968406140084344
:1007D000B0FA80F04009B0BD70B5C04C02214FF4B2
:1007E000FA762068FFF793FE274D56B1208AC0069F
:1007F00002D42888013028800A2000F073F9013ED5
:10080000F3E72888B0F5E17F06D97C20FFF7DCFE0E
:10081000012818BF00F06EF9206801214FF4FA7624
:10082000FFF775FE56B1208AC00602D42888013031
:1008300028800A2000F056F9013EF3E7288808B323
:1008400020684FF4FA7620F4407020600020288061
:10085000E06820F44070E0604FF4FA7000F042F974
:1008600056B1208AC00602D42888013028800A2088
:1008700000F038F9013EF3E7288818B1BDE8704070
:1008800000F038B970BD00BFB00000202DE9FC4772
:1008900005AFE54EF078D8B18E4C71892046B18114
:1008A000FFF78AFF002800F004818B4D4FF4807120
:1008B0002846FFF79BFCB08928B114F8011B0138CA
:1008C00005F8011BF8E700F07DFA0020F07025E044
:1008D000804C217C20787D29706106D1207A0D28FA
:1008E0001CD1607A422815D018E0217D7D2905D1E0
:1008F000217B0D2902D1617B42290BD094F828106D
:100900007D2910D194F820100D290CD194F82110D4
:10091000422908D100F02EFA00202075A7F10C041E
:10092000A546BDE8F0876178A278E37801431143DA
:10093000194319D0411E032925D9FD283AD0FE2894
:1009400048D0FF2812D1E44C04200421FFF70DFE0B
:10095000002800F0AE80002030816088000400BADA
:1009600000F1006070625AE0652030819D4CFFF715
:10097000C0FD206820F44070206030890130308153
:1009800000203062CAE7DFE801F0023E519B0220FE
:100990000221B081D048FFF70FFF002800F08980C6
:1009A000726A4F48824240F28E8071894A4800F054
:1009B00097F934E002200221B081C748FFF7FCFE1E
:1009C000002876D0F54CFFF794FD206820F44070A5
:1009D0002060D5E7C04C04200421FFF7C6FD0028A5
:1009E00067D00120ED4AE178F070A0781368012803
:1009F00023F4407313604FF48072F28108BF4FF408
:100A000080717181BCE702200221B081B248FFF7FA
:100A1000D3FE00284DD0706A3149884253D9A7F1DE
:100A20000C04A546BDE8F04700F0CCB9AA4C022062
:100A30000221FFF79AFDE0B33069F34A647801219F
:100A4000E946013092463061102090618020F081AB
:100A5000002C106861F30920106008BF4FF4807407
:100A600004F10A0020F00700ADEB0005AD4604F1EB
:100A7000030828464146FFF797FB716A284622463D
:100A800000F0D4F82846214600F0AEF8B0883021B6
:100A90002853281981702846414600F083F9DAF876
:100AA000000020F44070CAF8000000203062CD46FB
:100AB00034E7A7F10C04A546BDE8F04700F098B96B
:100AC0000120707052E7A7F10C04A546BDE8F0477D
:100AD00000F084B9B4010020B400002000040048F4
:100AE000FF0F0008E94900220A600A688242FCD32D
:100AF000704700BFB0B53A4801210C4DE44CC163CA
:100B000072B66968A1610B49097801291EBF0020EE
:100B10002081B0BD0021FFF7FDFDA069E0612868DC
:100B200080F30888E069BDE8B04000470010000885
:100B300078000020007C000882B0DFF86482022088
:100B40000121C8F804000320C8F804000220FFF7C0
:100B50002FFDCF4E06F128052846FFF723FE77200C
:100B60001F4C0027294630854FF6FF70B786C6E92F
:100B70000B702046FFF7D8FD20460121FFF7CAFD84
:100B80004FF480200121FFF707FD4FF400300121D1
:100B9000FFF702FD9C4D10206946CDF80270ADF8BC
:100BA00000002846FFF734FCFFF716FE652060635F
:100BB000286820F440702860E86820F44070E860FD
:100BC00066206725606398F8000088F80B0065636D
:100BD00000F036F830896528F9D3FFF78BFFF6E788
:100BE0000004004000040048F0B50E4A002400252F
:100BF00000238B4212D0C55C0026082E0AD2C4F313
:100C00004E076C40E40718BF5740ECB20136650848
:100C10003C46F2E7A5B201332D0AEAE79C4845714C
:100C20000471F0BD01A0FFFF7800002010B5002383
:100C30009342A8BF10BDCC5CC4540133F8E7000058
:100C40002DE9F041234D0120914EDFF88C804FF4C7
:100C5000817128600020307030614046FFF7C6FA8D
:100C60001E4F4F4C7FB300F0D1F8606801306060D8
:100C700060682860F07868B1718930690231884213
:100C80001AD0B27808EB07010130306181F80221F7
:100C900028600AE055F81C0CFB2810D2B17808EB4C
:100CA000070080F80211781C01D00137DAE730899B
:100CB000143030810120EBE71920286003E0082080
:100CC00028600020306102202860BDE8F041FFF775
:100CD000DDBD00BF40040040B4010020FEFEFFFF68
:100CE0002DE9FF4707AF06460420904691FBF0F43C
:100CF000072000EB840020F00700ADEB0005AD46B7
:100D000028462146FFF772FA0020A04205DA56F87D
:100D1000201045F820100130F7E747F8104CFFF796
:100D20004DFB5FEA885002D14046FFF7C9FA002028
:100D300047F8140C47F8180C57F8180C57F8101C03
:100D4000884210D257F8180C57F8181C55F8211083
:100D500008EB8000FFF708FB3420FFF7ADFA57F8E7
:100D6000180C0130E6E7A7F10C04A546BDE8F047F2
:100D7000FFF7F6BA10B5244C10200121A0612068BD
:100D800061F30920092120600548083000F00AF8C5
:100D9000FFF7D1FB3E48016210BD00BF00040048D0
:100DA0000000002070B50C4605460026A642A8BFEC
:100DB00070BDA85D00F070F83420FFF793FE013697
:100DC000F4E7000010B5104CFFF7C0FB302000F036
:100DD00063F8FFF7B0FB2E48016210BD10B50A4C56
:100DE000FFF787FBFFF7A7FB2948016210BD00BF93
:100DF00010B5054CFFF7AAFBC22000F04DF8FFF735
:100E00009AFB2348016210BD00040048F8B51F4C4E
:100E100068201F4D1F4E20610020A87044F62160FD
:100E20003188C90607D421688142F9D3692020613D
:100E300065202881F8BD6A20206128783188C9069C
:100E400007D52168FB29F9D30028F7D0402060613D
:100E5000F8BD6B2060611A20FFF744FE0027082FC1
:100E60000BD03420FFF73EFEA8783188C1F3001183
:100E7000B94001370843A870F1E71A20FFF732FEA6
:100E800001202870A878A871A061F8BD2404004052
:100E90007800002010040048F8B50A4D10260446DA
:100EA00000272E823420FFF71DFE072F06D8E0070B
:100EB0000CBF2E822E6064080137F3E710202860F3
:100EC000F8BD00BF18040048E80E0008000000202C
:100ED0001800000008010008000F0008180000209A
:100EE000A008000024010008140000000100000018
:100EF000343731001F0606013000000000000000FA
:04000005080000CD22
:00000001FF
