:020000040800F2
:10000000B808002069010008F1040008ED040008A8
:10001000EF040008B3020008BB070008000000005E
:1000200000000000000000000000000009060008B9
:10003000B502000800000000990500080B06000842
:100040008301000883010008830100088301000880
:100050008301000883010008830100088301000870
:1000600000000000830100088301000883010008EC
:1000700083010008830100088301000800000000DC
:1000800083010008830100080000000083010008CC
:100090008301000883010008830100088301000830
:1000A0008301000883010008830100088301000820
:1000B00083010008000000000000000000000000B4
:1000C00083010008000000008301000800F002F82E
:1000D00000F03AF80AA090E8000C82448344AAF1A8
:1000E0000107DA4501D100F02FF8AFF2090EBAE8A6
:1000F0000F0013F0010F18BFFB1A43F0010318475C
:10010000000E0000200E0000103A24BF78C878C10D
:10011000FAD8520724BF30C830C144BF04680C600D
:10012000704700000023002400250026103A28BF55
:1001300078C1FBD8520728BF30C148BF0B60704759
:100140001FB51FBD10B510BD00F07AF81146FFF7BE
:10015000F7FF00F001FD00F098F803B4FFF7F2FF9D
:1001600003BC00F09FF80000094880470948004799
:10017000FEE7FEE7FEE7FEE7FEE7FEE7FEE7FEE757
:10018000FEE7FEE704480549054A064B70470000B4
:100190000D060008CD000008B8020020B8080020B5
:1001A000B8040020B80400204FF000020429C0F079
:1001B000128010F0030C00F01B80CCF1040CBCF199
:1001C000020F18BF00F8012BA8BF20F8022BA1EBEB
:1001D0000C0100F00DB85FEAC17C24BF00F8012BD0
:1001E00000F8012B48BF00F8012B70474FF00002C8
:1001F00000B5134694469646203922BFA0E80C501D
:10020000A0E80C50B1F12001BFF4F7AF090728BFF7
:10021000A0E80C5048BF0CC05DF804EB890028BF73
:1002200040F8042B08BF704748BF20F8022B11F09C
:10023000804F18BF00F8012B704770477047704718
:10024000754600F02BF8AE4605006946534620F08F
:100250000700854618B020B5FFF794FFBDE82040A1
:100260004FF000064FF000074FF000084FF0000B72
:10027000AC46ACE8C009ACE8C009ACE8C009ACE8E1
:10028000C00921F007018D46704710B50446AFF351
:1002900000802046BDE81040FFF75FBF0048704770
:1002A0001800002001491820ABBEFEE7260002001E
:1002B0007047FEE77047000028490860704700BF9C
:1002C000B0B504463A4800212044B1EB103F14D1A8
:1002D00000F01BF9042811D1364D286840F00200C7
:1002E00028606C60286840F04000286000F00DF93C
:1002F000296821F00201296000E004202E496FF0F6
:100300007842096802EB8121A14213D300F03CF945
:1003100004280FD1274D286840F0020028606C6047
:10032000286840F04000286000F02EF9296821F08C
:1003300002012960B0BD00BF08480168C9071CBFA1
:10034000012070470168490744BF022070470068D8
:10035000C0064FF0030058BF042070470C20024035
:10036000144800F0E0B800BF7CB50C4610490546C3
:10037000002001902944B0EB113F09D100F0CFF8E3
:10038000042806D10B4E00F0F2F800F0D8F800E097
:100390000420094900F0DFF808D300F0F9F8042838
:1003A00004D1044E00F0E3F800F0C9F87CBD00BFB2
:1003B000001C00E010200240E0F7FF1F0248034944
:1003C0000160034901607047042002402301674532
:1003D000AB89EFCD10B50446FFF7AEFF24B1C1B233
:1003E000012901D1013CF7E7002C08BF0520C0B26C
:1003F00010BD10B50446FFF79FFF24B1C1B201291B
:1004000001D1013CF7E7002C08BF0520C0B210BDA8
:100410002DE9F04F91F803904FF0030EB9F1040F5E
:1004200024BF4FF0000981F80390A9F1010B91F866
:1004300005A0BAF1030F24BF4FF0000A81F805A010
:1004400091F804C0BCF1020F24BF4FF0000C81F8FA
:1004500004C091F80280A8F10102022A24BF4FF0E3
:10046000020881F802800988002701240025102D48
:1004700008BFBDE8F08F04FA05F20A4233D0BBF1A1
:10048000010F1DD8838F934383870EFA07F3B8F1CA
:10049000010F866826EA0303836005D8866808FA98
:1004A00007F33343836002E0838F1343838783889A
:1004B000D2431A4082800CFA05F283881A43828064
:1004C00003680EFA07F29343036009FA07F306681C
:1004D00033430360C36823EA0202C2600AFA07F2E8
:1004E000C3681A43C26002370135C0E7FEE7FEE782
:1004F000704704214FF0904401600121206861F3AE
:1005000005102060C12000F0E3BC4FF08050FFF7E1
:1005100070BF2068002120F03000206070474FF449
:100520007040FFF766BF016841F0800101607047CD
:1005300001600121206861F3051020607047316877
:1005400021F00101316070474FF4FA76016821F023
:100550003001016070476FF07842096802EB812139
:10056000A942704720604FF4FA7000F0CBBA3068AF
:1005700040F0010030604FF470402C60FFF739BF4D
:10058000B081204600F01AB94FF08050FFF722BF2B
:100590004FF47040FFF71EBF70470000044A002967
:1005A00011680CBF21EA000008431060704700BFCB
:1005B00014100240044A002911680CBF21EA00000F
:1005C00008431060704700BF1C10024001224A49D6
:1005D000B2EB501F04D04209022A14BF243120314B
:1005E000096800F01F0021FA00F000F001007047D8
:1005F000044901280A6822F0300208BF30320A603C
:10060000704700BF54100240704770471CB53A4C09
:100610003A493D4A206840F0010020606068084087
:1006200037496060206808402060206820F48020FE
:1006300020603448616801406160216B1140216392
:100640004FF41F01A160002101910091216841F048
:10065000010121604FF6FF71226802F00202009250
:10066000019A01320192009A12B9019A8A42F3D199
:100670002168890754BF00210121009100990129B7
:1006800034D1224940F2531200F10C600A606168D3
:100690006160616821F460516160616861606168F6
:1006A00021F4E06161606168616061680840184937
:1006B0006060606808436060206840F0807020607F
:1006C00020688001FCD50120FFF792FF606820F0D0
:1006D00003006060606840F002006060606800F0E5
:1006E0000C000828FAD10020FFF782FF09484FF0DC
:1006F000006101601CBD00BF001002400C00FFE85B
:10070000FFFFF6FEFFFF001700FFFEFE0020024085
:100710000000342008ED00E0002918BF0121028804
:1007200022F001021144018070470000B0B5184C5E
:10073000038804F58E3290420ED0164DA8420BD09D
:10074000154DA84208D0154DA84205D0144DA84219
:1007500002D0144DA84203D18D8823F070032B439F
:10076000A04203D08C8923F440732343038090423A
:100770008B68C3620B88038505D0094A904202D07A
:10078000084A904201D1897B018601218182B0BD56
:1007900000100040000400400020004000400140E4
:1007A000004801400044014000214FF6FF72818162
:1007B00001808173C0E901127047FEE7B0B54218AD
:1007C000445C557800F024FAE148017940796840AA
:1007D00061400843B0FA80F04009B0BD70B54FF0F9
:1007E00090402D4CFFF7B0FE0221206861F3051008
:1007F000FFF7B8FE294D56B1A088400702D42888DB
:10080000013028800A2000F07DF9013EF3E72888B6
:10081000B0F5E17F06D97C20FFF7D8FE012818BF8C
:1008200000F078F94FF090404FF4FA76016821F02B
:100830003001FFF77DFE4FF4FA7000F063F956B116
:10084000A088400702D42888013028800A2000F0C0
:1008500059F9013EF3E72888E0B14FF09040FFF7E7
:1008600073FE00202880206820F03000FFF77AFE19
:1008700056B1A088400702D42888013028800A2079
:1008800000F040F9013EF3E7288818B1BDE8704058
:1008900000F040B970BD00BF0C000048B00000205F
:1008A0002DE9FC4705AFEA4EF078D8B1914C71893B
:1008B0002046B181FFF782FF002800F009818E4DAC
:1008C0004FF480712846FFF791FCB08928B114F8E5
:1008D000011B013805F8011BF8E700F087FA00203A
:1008E000F07025E0834C217C20787D29706106D151
:1008F000207A0D281CD1607A422815D018E0217D7D
:100900007D2905D1217B0D2902D1617B42290BD0A4
:1009100094F828107D2910D194F820100D290CD1BD
:1009200094F82110422908D100F038FA00202075EF
:10093000A7F10C04A546BDE8F0876178A278E378BA
:1009400001431143194319D0411E032925D9FD281C
:100950003AD0FE2848D0FF2812D1E94C04200421C7
:10096000FFF70EFE002800F0B38000203081608881
:10097000000400BA00F1006070625BE06520308125
:100980005E48FFF7B6FD206820F030002060308917
:100990000130308100203062CAE7DFE801F0023F19
:1009A00052A002200221B081D548FFF707FF00289E
:1009B00000F08E80726A5248824240F293807189C0
:1009C0004D4800F0A1F935E002200221B081CC4869
:1009D000FFF7F4FE00287BD04848FFF78AFD206827
:1009E00020F030002060D5E7C54C04200421FFF73B
:1009F000C7FD00286CD001204FF09042E178F070E4
:100A0000A0781368012823F0300313604FF480723C
:100A1000F28108BF4FF480717181BBE7022002218F
:100A2000B081B748FFF7CAFE002851D0706A344938
:100A3000884257D9A7F10C04A546BDE8F04700F05D
:100A4000D5B9AF4C02200221FFF79AFD00283FD014
:100A50003069042164784FF09049EA4601303061F2
:100A6000EF48016080200121F081002CD9F80000BE
:100A700061F30510C9F8000008BF4FF4807404F159
:100A80000A0020F00700ADEB0005AD4604F10308B5
:100A900028464146FFF788FB716A2846224600F047
:100AA000D9F82846214600F0B3F8B0883021285301
:100AB000281981702846414600F088F9D9F80000CD
:100AC00020F03000C9F8000000203062D5462FE742
:100AD000A7F10C04A546BDE8F04700F0A3B901203A
:100AE00070704DE7A7F10C04A546BDE8F04700F093
:100AF0008DB900BFB4010020B400002018000048E8
:100B0000FF0F0008EF4900220A600A688242FCD306
:100B1000704700BFB0B53C4801210C4DEA4CC163A1
:100B200072B66968A1610B49097801291EBF0020CE
:100B30002081B0BD0021FFF7EFFDA069E0612868CA
:100B400080F30888E069BDE8B04000470010000865
:100B500078000020007C000882B0DFF86C82022060
:100B60000121C8F804000320C8F804000220FFF7A0
:100B700021FDD54E06F128052846FFF715FE772002
:100B8000214C0027294630854FF6FF70B786C6E90D
:100B90000B702046FFF7CAFD20460121FFF7BCFD80
:100BA0004FF480200121FFF7F9FC4FF400300121C0
:100BB000FFF7F4FC154D04206946CDF80270ADF83E
:100BC000000005F57D70FFF723FCFFF707FE6520A9
:100BD00060634FF09040016821F0300101602868A7
:100BE00020F03000286066206725606398F80000D8
:100BF00088F80B00656300F037F830896528F9D371
:100C0000FFF788FFF6E700BF000400400C00004833
:100C1000F0B50E4A0024002500238B4212D0C55C9B
:100C20000026082E0AD2C4F34E076C40E40718BF12
:100C30005740ECB2013665083C46F2E7A5B20133F5
:100C40002D0AEAE7A04845710471F0BD01A0FFFF3D
:100C50007800002010B500239342A8BF10BDCC5CE3
:100C6000C4540133F8E700002DE9F041234D012081
:100C7000954EDFF88C804FF4817128600020307031
:100C800030614046FFF7B2FA1E4F4F4C7FB300F081
:100C9000D9F860680130606060682860F07868B1F9
:100CA00071893069023188421AD0B27808EB0701A5
:100CB0000130306181F8022128600AE055F81C0CEF
:100CC000FB2810D2B17808EB070080F80211781CDD
:100CD00001D00137DAE73089143030810120EBE7A9
:100CE0001920286003E008202860002030610220DD
:100CF0002860BDE8F041FFF7D3BD00BF40040040CD
:100D0000B4010020FEFEFFFF2DE9FF4707AF0646B6
:100D10000420904691FBF0F4072000EB840020F0C3
:100D20000700ADEB0005AD4628462146FFF75EFA09
:100D30000020A04205DA56F8201045F820100130B6
:100D4000F7E747F8104CFFF739FB5FEA885002D10C
:100D50004046FFF7B5FA002047F8140C47F8180C86
:100D600057F8180C57F8101C884210D257F8180C76
:100D700057F8181C55F8211008EB8000FFF7F4FA1B
:100D80003420FFF799FA57F8180C0130E6E7A7F17D
:100D90000C04A546BDE8F047FFF7E2BA10B5574886
:100DA00004214FF0904401600121206861F3051097
:100DB000092120600448083000F008F8FFF7A9FB7B
:100DC0004148016210BD00BF0000002070B50C4614
:100DD00005460026A642A8BF70BDA85D00F078F8C1
:100DE0003420FFF78FFE0136F4E7000010B54348CA
:100DF00004214FF09044FFF79BFB302000F068F88F
:100E0000FFF787FB3048016210BD00BF10B53B48BB
:100E1000FFF76FFBFFF77DFB2B48016210BD00BFA2
:100E20001800004810B5354804214FF09044FFF7F2
:100E30007FFBC22000F04CF8FFF76BFB22480162F9
:100E400010BD00BFF8B51F4C68201F4D1F4E20611C
:100E50000020A87044F621603188490707D4216832
:100E60008142F9D36920206165202881F8BD6A207C
:100E7000206128783188490707D52168FB29F9D3F3
:100E80000028F7D040206061F8BD6B2060611A2017
:100E9000FFF738FE0027082F0BD03420FFF732FE73
:100EA000A8783188C1F38001B94001370843A870A0
:100EB000F1E71A20FFF726FE01202870A878A87114
:100EC000A061F8BD24040040780000201000004814
:100ED000F8B50A4D0426044600272E823420FFF779
:100EE00011FE072F06D8E0070CBF2E822E60640883
:100EF0000137F3E704202860F8BD00BF1800004860
:100F0000200F000800000020180000000801000861
:100F1000380F000818000020A00800002401000875
:100F20000200000001000000343731001F060601F6
:080F3000300000000000000089
:04000005080000CD22
:00000001FF
