:020000040800F2
:10000000B808002069010008F1040008ED040008A8
:10001000EF040008B3020008830700080000000096
:10002000000000000000000000000000D5050008EE
:10003000B50200080000000089050008D705000887
:100040008301000883010008830100088301000880
:100050008301000883010008830100088301000870
:1000600000000000830100088301000883010008EC
:1000700083010008830100088301000800000000DC
:1000800083010008830100080000000083010008CC
:100090008301000883010008830100088301000830
:1000A0008301000883010008830100088301000820
:1000B00083010008000000000000000000000000B4
:1000C00083010008000000008301000800F002F82E
:1000D00000F03AF80AA090E8000C82448344AAF1A8
:1000E0000107DA4501D100F02FF8AFF2090EBAE8A6
:1000F0000F0013F0010F18BFFB1A43F0010318475C
:100100005C0D00007C0D0000103A24BF78C878C157
:10011000FAD8520724BF30C830C144BF04680C600D
:10012000704700000023002400250026103A28BF55
:1001300078C1FBD8520728BF30C148BF0B60704759
:100140001FB51FBD10B510BD00F07AF81146FFF7BE
:10015000F7FF00F0C1FC00F098F803B4FFF7F2FFDE
:1001600003BC00F09FF80000094880470948004799
:10017000FEE7FEE7FEE7FEE7FEE7FEE7FEE7FEE757
:10018000FEE7FEE704480549054A064B70470000B4
:10019000D9050008CD000008B8020020B8080020EA
:1001A000B8040020B80400204FF000020429C0F079
:1001B000128010F0030C00F01B80CCF1040CBCF199
:1001C000020F18BF00F8012BA8BF20F8022BA1EBEB
:1001D0000C0100F00DB85FEAC17C24BF00F8012BD0
:1001E00000F8012B48BF00F8012B70474FF00002C8
:1001F00000B5134694469646203922BFA0E80C501D
:10020000A0E80C50B1F12001BFF4F7AF090728BFF7
:10021000A0E80C5048BF0CC05DF804EB890028BF73
:1002200040F8042B08BF704748BF20F8022B11F09C
:10023000804F18BF00F8012B704770477047704718
:10024000754600F02BF8AE4605006946534620F08F
:100250000700854618B020B5FFF794FFBDE82040A1
:100260004FF000064FF000074FF000084FF0000B72
:10027000AC46ACE8C009ACE8C009ACE8C009ACE8E1
:10028000C00921F007018D46704710B50446AFF351
:1002900000802046BDE81040FFF75FBF0048704770
:1002A0001800002001491820ABBEFEE7260002001E
:1002B0007047FEE77047000028490860704700BF9C
:1002C000B0B504463A4800212044B1EB103F14D1A8
:1002D00000F019F9042811D1364D286840F00200C9
:1002E00028606C60286840F04000286000F00BF93E
:1002F000296821F00201296000E004202E496FF0F6
:100300007842096802EB8121A14213D300F034F94D
:1003100004280FD1274D286840F0020028606C6047
:10032000286840F04000286000F026F9296821F094
:1003300002012960B0BD00BF08480168C9071CBFA1
:10034000012070470168490744BF022070470068D8
:10035000C0064FF0030058BF042070470C20024035
:10036000144800F0DEB800BF7CB50C4610490546C5
:10037000002001902944B0EB113F09D100F0CDF8E5
:10038000042806D10B4E00F0EEF800F0D7F800E09C
:100390000420094900F0DBF808D300F0F1F8042844
:1003A00004D1044E00F0DFF800F0C8F87CBD00BFB7
:1003B000001C00E010200240E0F7FF1F0248034944
:1003C0000160034901607047042002402301674532
:1003D000AB89EFCD10B50446FFF7AEFF24B1C1B233
:1003E000012901D1013CF7E7002C08BF0520C0B26C
:1003F00010BD10B50446FFF79FFF24B1C1B201291B
:1004000001D1013CF7E7002C08BF0520C0B210BDA8
:100410002DE9F04F91F803904FF0030EB9F1040F5E
:1004200024BF4FF0000981F80390A9F1010B91F866
:1004300005A0BAF1030F24BF4FF0000A81F805A010
:1004400091F804C0BCF1020F24BF4FF0000C81F8FA
:1004500004C091F80280A8F10102022A24BF4FF0E3
:10046000020881F802800988002701240025102D48
:1004700008BFBDE8F08F04FA05F20A4233D0BBF1A1
:10048000010F1DD8838F934383870EFA07F3B8F1CA
:10049000010F866826EA0303836005D8866808FA98
:1004A00007F33343836002E0838F1343838783889A
:1004B000D2431A4082800CFA05F283881A43828064
:1004C00003680EFA07F29343036009FA07F306681C
:1004D00033430360C36823EA0202C2600AFA07F2E8
:1004E000C3681A43C26002370135C0E7FEE7FEE782
:1004F000704710200121A061206861F3092020606D
:10050000C12000F093BC4FF08050FFF772BF20680D
:10051000002120F44070206070474FF47040FFF7D6
:1005200068BF016841F0800101607047102001211F
:10053000A061206861F3092020607047316821F0D4
:10054000010131607047B081204600F01BB96FF0A7
:100550007842096802EB8121A9427047206820F4A3
:10056000407020607047306840F0010030604FF408
:1005700070402C60FFF73DBF4FF08050FFF72ABF5F
:100580004FF47040FFF726BF70470000044A00296F
:1005900011680CBF21EA000008431060704700BFDB
:1005A00014100240044A002911680CBF21EA00001F
:1005B00008431060704700BF1C1002400449012826
:1005C0000A6822F0300208BF30320A60704700BF6C
:1005D00054100240704770471CB53A4C3A493D4AA6
:1005E000206840F001002060606808403749606082
:1005F000206808402060206820F480202060344873
:10060000616801406160216B114021634FF41F015B
:10061000A160002101910091216841F00101216058
:100620004FF6FF71226802F002020092019A013235
:100630000192009A12B9019A8A42F3D1216889077E
:1006400054BF0021012100910099012934D1224990
:1006500040F2531200F10C600A60616861606168E9
:1006600021F46051616061686160616821F4E0615A
:100670006160616861606168084018496060606835
:1006800008436060206840F080702060206880012E
:10069000FCD50120FFF792FF606820F00300606046
:1006A000606840F002006060606800F00C0008289C
:1006B000FAD10020FFF782FF09484FF00061016086
:1006C0001CBD00BF001002400C00FFE8FFFFF6FE5B
:1006D000FFFF001700FFFEFE002002400000342054
:1006E00008ED00E0002918BF0121028822F0010274
:1006F0001144018070470000B0B5184C038804F520
:100700008E3290420ED0F04DA8420BD0144DA8422C
:1007100008D0144DA84205D0134DA84202D0134D65
:10072000A84203D18D8823F070032B43A04203D04D
:100730008C8923F440732343038090428B68C36207
:100740000B88038505D0084A904202D0074A9042A0
:1007500001D1897B018601218182B0BD001000405A
:10076000002000400040014000480140004401409A
:1007700000214FF6FF72818101808173C0E901126F
:100780007047FEE7B0B54218445C557800F0F8F9C0
:10079000CF4801794079684061400843B0FA80F061
:1007A0004009B0BD70B5F54C01214FF4FA76FFF762
:1007B000D5FEE06861F309206421E0601B48016018
:1007C0004FF4FA7000F05CF9194D56B1208AC0065A
:1007D00002D42888013028800A2000F051F9013E17
:1007E000F3E7288808B320684FF4FA7620F44070C5
:1007F000206000202880E06820F44070E0604FF422
:10080000FA7000F03DF956B1208AC00602D428885B
:10081000013028800A2000F033F9013EF3E72888F0
:1008200018B1BDE8704000F033B970BD3404004029
:10083000B00000202DE9FC4705AFE14EF078D8B1BB
:100840008C4C71892046B181FFF79CFF002800F095
:100850000081894D4FF480712846FFF7C7FCB089AD
:1008600028B114F8011B013805F8011BF8E700F066
:1008700073FA0020F07025E07E4C217C20787D29E1
:10088000706106D1207A0D281CD1607A422815D0DB
:1008900018E0217D7D2905D1217B0D2902D1617BC5
:1008A00042290BD094F828107D2910D194F82010FB
:1008B0000D290CD194F82110422908D100F024FA16
:1008C00000202075A7F10C04A546BDE8F0876178EB
:1008D000A278E37801431143194319D0411E03293B
:1008E00023D9FD2838D0FE2844D0FF2812D1DE4C71
:1008F00004200421FFF727FE002800F0AA80002032
:1009000030816088000400BA00F10060706256E037
:1009100065203081994CFFF7ECFDFFF71FFE308911
:100920000130308100203062CCE7DFE801F0023C8A
:100930004F9902200221B081CB48FFF723FF002806
:1009400000F08780726A4D48824240F28C80718943
:10095000494800F08FF932E002200221B081C248FC
:10096000FFF710FF002874D0F14CFFF7C2FDFFF72E
:10097000F5FDD7E7BC4C04200421FFF7E4FD002877
:1009800067D00120EA4AE178F070A0781368012866
:1009900023F4407313604FF48072F28108BF4FF468
:1009A00080717181BEE702200221B081AE48FFF75D
:1009B000E9FE00284DD0706A3049884253D9A7F12A
:1009C0000C04A546BDE8F04700F0C6B9A64C0220CD
:1009D0000221FFF7B8FDE0B33069F04A64780121E5
:1009E000E946013092463061102090618020F0810C
:1009F000002C106861F30920106008BF4FF4807468
:100A000004F10A0020F00700ADEB0005AD4604F14B
:100A1000030828464146FFF7C7FB716A284622466D
:100A200000F0D0F82846214600F0AAF8B08830211E
:100A30002853281981702846414600F07DF9DAF8DC
:100A4000000020F44070CAF8000000203062CD465B
:100A500038E7A7F10C04A546BDE8F04700F092B9CD
:100A60000120707056E7A7F10C04A546BDE8F047D9
:100A700000F07EB9B4010020B4000020FF0F000890
:100A8000E74900220A600A688242FCD3704700BF2F
:100A9000B0B5394801210D4DE24CC16372B66968A9
:100AA000A1610C49097801291EBF00202081B0BD39
:100AB0000021FFF717FEA069E061286880F308882D
:100AC000E069BDE8B04000470004004000100008A5
:100AD00078000020007C000882B0DFF858820220F5
:100AE0000121C8F804000320C8F804000220FFF721
:100AF00059FDCC4E06F128052846FFF739FE772030
:100B00001D4C0027294630854FF6FF70B786C6E991
:100B10000B702046FFF7F0FD20460121FFF7E2FDB4
:100B20004FF480200121FFF731FD9C4D10206946D4
:100B3000CDF80270ADF800002846FFF769FCFFF71A
:100B400031FE65206063286820F440702860E86802
:100B500020F44070E86066206725606398F8000024
:100B600088F80B00656300F037F830896528F9D301
:100B7000FFF78EFFF6E700BF0004004000040048C6
:100B8000F0B50E4A0024002500238B4212D0C55C2C
:100B90000026082E0AD2C4F34E076C40E40718BFA3
:100BA0005740ECB2013665083C46F2E7A5B2013386
:100BB0002D0AEAE79B4845710471F0BD01A0FFFFD3
:100BC0007800002010B500239342A8BF10BDCC5C74
:100BD000C4540133F8E700002DE9F041914DDFF8EE
:100BE000888000204FF48171287028614046FFF70B
:100BF000FDFA1E4F1E4E4F4C7FB300F0D1F86068D7
:100C00000130606060683060E87868B1698928699F
:100C1000023188421AD0AA7808EB07010130286116
:100C200081F8022130600AE056F81C0CFB2810D233
:100C3000A97808EB070080F80211781C01D0013771
:100C4000DAE72889143028810120EBE71920306089
:100C500003E0082030600020286102203060BDE8F9
:100C6000F041FFF7E7BD00BFB4010020FEFEFFFF2B
:100C7000400400402DE9FF4707AF06460420904698
:100C800091FBF0F4072000EB840020F00700ADEBAF
:100C90000005AD4628462146FFF7A8FA0020A042ED
:100CA00005DA56F8201045F820100130F7E747F82C
:100CB000104CFFF783FB5FEA885002D14046FFF7F4
:100CC000FFFA002047F8140C47F8180C57F8180CD6
:100CD00057F8101C884210D257F8180C57F8181CF7
:100CE00055F8211008EB8000FFF73EFB3420FFF79A
:100CF000E3FA57F8180C0130E6E7A7F10C04A54613
:100D0000BDE8F047FFF72CBB10B5244C10200121A3
:100D1000A061206861F3092009212060054808309E
:100D200000F00AF8FFF7F3FB3E48016210BD00BF78
:100D3000000400480000002070B50C46054600265F
:100D4000A642A8BF70BDA85D00F070F83420FFF780
:100D500097FE0136F4E7000010B5104CFFF7E6FBF4
:100D6000302000F063F8FFF7D2FB2E48016210BD7F
:100D700010B50A4CFFF7BDFBFFF7C9FB294801621C
:100D800010BD00BF10B5054CFFF7D0FBC22000F02E
:100D90004DF8FFF7BCFB2348016210BD000400487A
:100DA000F8B51F4C68201F4D1F4E20610020A87011
:100DB00044F621603188C90607D421688142F9D3FD
:100DC0006920206165202881F8BD6A20206128788B
:100DD0003188C90607D52168FB29F9D30028F7D047
:100DE00040206061F8BD6B2060611A20FFF748FE6B
:100DF0000027082F0BD03420FFF742FEA878318857
:100E0000C1F30011B94001370843A870F1E71A2077
:100E1000FFF736FE01202870A878A871A061F8BD00
:100E2000240400407800002010040048F8B50A4D62
:100E30001026044600272E823420FFF721FE072FBC
:100E400006D8E0070CBF2E822E6064080137F3E756
:100E500010202860F8BD00BF18040048800E00086C
:100E6000000000201800000008010008980E00088B
:100E700018000020A0080000240100080000000065
:100E80001400000001000000343731001F06060185
:080E900030000000000000002A
:04000005080000CD22
:00000001FF
