:020000040800F2
:1000000050060020E10000086D0100086B010008A7
:1000100000000000000000000000000000000000E0
:100020000000000000000000000000007101000856
:1000300000000000000000006F01000873010008CC
:10004000F3000008F3000008F3000008F3000008C4
:10005000F3000008F3000008F3000008F3000008B4
:1000600000000000F3000008F3000008F30000089F
:1000700069010008F3000008F30000080000000018
:10008000F3000008F300000800000000F30000087F
:10009000F3000008F3000008F3000008F300000874
:1000A000F3000008F3000008F3000008F300000864
:1000B000F300000800000000000000000000000045
:1000C000F300000800000000F30000080348854624
:1000D00000F038F800480047850800085006002066
:1000E0000448804704480047FEE7FEE7FEE7FEE7D6
:1000F000FEE7FEE775010008CD00000803460B434C
:100100009B0703D009E008C9121F08C0042AFAD2CD
:1001100003E00B780370401C491C521EF9D2704753
:10012000D2B201E00270401C491EFBD2704700228F
:10013000F6E710B513460A4604461946FFF7F0FFE6
:10014000204610BD064C0125064E05E0E36807CCAD
:100150002B430C3C98471034B442F7D3FFF7BAFF57
:10016000980E0008B80E00087047FEE77047704709
:1001700070477047F0B481B04248021F13680121F4
:100180000B43136013689B07FCD5036880241C4352
:10019000046000240094009B7F2B05D8009B5B1C0F
:1001A0000093009B802BF9D3036890251D430560C5
:1001B0000094009B7F2B05D8009B5B1C0093009B49
:1001C000802BF9D30323DD4306682E4006601568B3
:1001D0002D4E2E40166005682C4E2E400660056898
:1001E0002B4E2E400660856A0F26B5438562C56A90
:1001F00040F20316B543C5620D04C66AAE43C6623B
:10020000CD07C66AAE43C662056B8D430563446085
:1002100014680C4314601F4D022416686F1EAF4211
:1002200002D226403D46F8D01568AD0700D4FEE75F
:10023000194D2E6826430527BE432E6005680560CC
:1002400005680560056805600568144E2E40066067
:100250000568134E2E4306600D0616682E43166081
:100260001568AD01FCD502689A430260026822431A
:10027000026002681207FCD5C806002101B0F0BC7C
:1002800000F096BB04100240FFFFF2FE0C00FF08D6
:10029000FFFFC277FF04000000200240FFFFC2F70B
:1002A00000000408F0B581B02A480025022210237E
:1002B000294600F0C7FA284E356040F2F41730683E
:1002C000B842FCD3254C2A4622480169C90602D40B
:1002D0002188491C2180356031680A29FCD3521CD1
:1002E000BA42F2D1218891B30025258010232946F6
:1002F0002A4600F0A7FA35603068B842FCD3284699
:10030000144A1169C90602D42188491C218035602C
:1003100031680A29FCD3401CB842F2D12088B0B120
:1003200072B60F4841680F4A11600F4A1278012ACD
:100330000AD10E4A1160006880F30888106801B085
:10034000F0BC02BC8E460047F5480021018001B098
:10035000F0BDC046000400482404004036000020E0
:100360000010000818000020007C00081C0000207D
:10037000F0B503AF85B06E46D848007840B3D84892
:100380000188D8480180D848445C4218557800F06C
:10039000E3FAD7480078A04200D08FE1D348007834
:1003A000A84200D08AE1D34840F20011FFF7BFFE17
:1003B000CC48028832B1012A00D80122CD48CA496E
:1003C000FFF79CFE00F0FCFB0020C449087026E00B
:1003D000C54C2078C8490860217C7D2906D1207A47
:1003E0000D281CD1607A422815D018E0217D7D2986
:1003F00005D1217B0D2902D1617B42290BD0282117
:10040000615C7D290FD12021615C0D290BD1212157
:10041000615C422907D100F0ADFB00202075FC1F74
:10042000053CA546F0BD61780143A3781943E57802
:1004300029432ED0FC284ADC401E03282CD88100FA
:1004400001A251188F46C04600F006B800F067B808
:1004500000F084B800F0EBB8A24802210180A24865
:100460001C4600F079FAA2480078A04200D025E1AD
:100470009E480078A84200D020E1A3480268A7481F
:10048000824200D822E1964801889A4800F00CFB8D
:100490005CE0A348652101809A48012100241025D1
:1004A00022462B4600F0CEF9C12000F023FC9C48E8
:1004B0000188491C0180964800F086FA914821463F
:1004C00022462B4600F0BEF992480460A7E7FD28BB
:1004D00000D1B0E0FE2800D1C8E0FF28DCD181487F
:1004E00004210180257960793061204600F034FADA
:1004F0007F480078A84200D0E0E07C48007831696D
:10050000884200D0DAE08648002101800120C00640
:100510006188090409BA08187B49086016E0714827
:100520000221018070481C4600F016FA70480078DD
:10053000A04200D0C2E06D480078A84200D0BDE0E3
:10054000714800687549884200D8BFE0FC1F053C2F
:10055000A546F0BC01BC864600F032BB61480221D2
:10056000018061481C4600F0F7F961480078A0421C
:1005700000D0A3E05D480078A84200D09EE05F482C
:10058000802101805E480168491C0160564844781A
:10059000EB480121002510232A4600F053F940F2D0
:1005A000001104B1214608460A300A46316107218C
:1005B00088436946716069460C1AD11CA5462046DD
:1005C000B160FFF7B4FD504801682046326900F081
:1005D0001BFA2046316900F0BFF9F4480078316910
:1005E0006054F460601830218170EF4909784170DF
:1005F000464C00203061F068405D00F07BFB3069C4
:10060000206020683428FCD36D1CB0688542F2D18C
:10061000CA4800F0D9F91023C94834692146224656
:1006200000F010F93B48046070688546F7E63A48E8
:100630000121017030E72B48022101802A481C4625
:1006400000F08AF9D9480078A04237D1D64800781E
:10065000A84233D1BA4801210024102522462B4656
:1006600000F0F0F8C12000F045FB24E71D4804210C
:100670000180257960793061204600F06DF9CB4822
:100680000078A8421AD1C84800783169884215D14B
:10069000012012490870194940F200100880A17821
:1006A000012900D0E0780E490880A44800F08CF9B8
:1006B000A348002410232146224603E7FC1F053CE3
:1006C000A546F0BC01BC864600F0AEBAFC1F053C56
:1006D000A546F0BC01BC864600F08CBA3100002073
:1006E0003C010020340000204801002026000020AA
:1006F000270000203C0000202800002024000020CB
:100700002C000020000400482000002024040040A9
:10071000120500004001002030000020FF0F0008FB
:1007200032000020404908607047C0460248016816
:1007300080220A430260704710200240B0B5014693
:10074000394A3A4C052023461568ED0702D05B1C58
:10075000FAD3B0BD1068C00613D410684008022355
:100760001840F6D15068184350609160506840219D
:100770000143516005201168C90704D0641CFAD3F5
:1007800009E00420B0BD1068C00603D4106840081A
:10079000184000E00420516899435160B0BDC04644
:1007A0002748016810220A43026070470448C16864
:1007B000090603D503490160034901607047C0463B
:1007C0000420024023016745AB89EFCD70B5024696
:1007D000154B164C052025461E68F60702D06D1CE9
:1007E000FAD370BD1868C00610D4186840080226F5
:1007F0003040F6D158680125284358601160052023
:100800001968C90704D0641CFAD309E0042070BD3C
:100810001868C00603D418684008304000E004207F
:100820005968A943596070BD0C2002400000F1FFD7
:1008300003490A6807239A4302430A607047C04687
:1008400000200240F0B582B0019305680090C068B6
:1008500000263746019BFB40DB0709D01346B34017
:100860000324B440A04318430B46B340A5431D43A3
:10087000B61C7F1C102FEDD100990D60C86002B02E
:10088000F0BD000086B00220FFF7D2FFFFF788FF1F
:10089000264803210160264800F096F8254D284699
:1008A00000F04AFA02AE304600F0DCFA224804902A
:1008B00047200290002403942846314600F07CFA39
:1008C000284600F073FAE64800F07EF8E34D102663
:1008D0002846214622463346FFF7B4FFFFF7E2FCE5
:1008E00001222846019421463346FFF7ABFF154805
:1008F0000078B249C870144D6A4E154C154F00F07F
:100900008DF830886528FAD372B668680F49086098
:100910002178012906D13860286880F30888386872
:100920008047ECE701983080E9E7C0460C000020E2
:100930000107000000040040FFFF00001205000056
:1009400000040048100000200010000818000020DB
:10095000007C00081C000020F0B581B00090002051
:10096000C1B1104C03460546009A565D07461A046D
:10097000520C7340DB0700D0624013467A1CF6B27B
:100980007608072F1746F2D36D1C8D42ECD198B232
:10099000000A00E00346044908700448037001B0EF
:1009A000F0BDC04601A0FFFF260000202700002068
:1009B000034A0A40024303480260BFF34F8F704767
:1009C00080FFFF1F08ED00E01F21014001228A4047
:1009D00080090C4943581343435070471F2101407D
:1009E00001228A4080090749435893434350704786
:1009F0001F21014001228A408009024943581343C4
:100A00004350704700100240012A05DB0B78037049
:100A1000491C401C521EF9D170470000F0B581B04E
:100A2000B048002101701B4E009131601A4C40F219
:100A30000217204640F20211FFF779FB174D00F034
:100A400013F9287858B1306815490988891C8842FB
:100A500019D0A24909782170401C306008E0B548DF
:100A60000068FB2808D29D4800782070012F06D02E
:100A7000641C7F1EE3D106E00098306003E09C48D0
:100A800001881431018001B0F0BC01BC8646FFF73B
:100A90006FBCC0462C00002048010020310000201F
:100AA0003C01002032000020F0B503AF87B06E4655
:100AB000F51D0935F260B16004460220FFF7B8FE6B
:100AC000B168C817800F0918716003208143C91DE0
:100AD000072081433160FFF763FE68463168401AA2
:100AE00071688910854670603160FFF720FBB0683F
:100AF00004280FDB70683168E2781206A3781B04C3
:100B00009A1863781B02D2182378D21804C0241DC7
:100B1000491EF1D13068A860FFF748FEF0688105F2
:100B200002D1FFF70BFEF0680021696029602A6896
:100B3000A9688A42746814D23421B1602A6829688D
:100B40008900615892001018FFF740FEB068FFF767
:100B5000E9FDF0682968491C29602A68A9688A4269
:100B6000ECD3FC1F053CA546F0BC01BC8646FFF754
:100B7000DDBD0000F0B581B038480121002410230C
:100B80002246FFF75FFE6B4E0C4F2546785D00F066
:100B9000B1F8346030683428FCD36D1C092DF5D1D0
:100BA0002F48FFF711FF002510232C4829462A461D
:100BB000FFF748FE2B48056001B0F0BD00000020A3
:100BC00070B5264D012100241026284622463346C2
:100BD000FFF738FE302000F08DF82148FFF7F4FED3
:100BE0002846214622463346FFF72CFE1D48046066
:100BF00070BDC04670B5194D01210024102628464D
:100C000022463346FFF71EFEC12000F073F8144859
:100C1000FFF7DAFE2846214622463346FFF712FE4A
:100C20001048046070BDC04670B50C4D0121002411
:100C30001026284622463346FFF704FEC22000F065
:100C400059F80748FFF7C0FE28462146224633469A
:100C5000FFF7F8FD0348046070BDC046000400487B
:100C60001205000040010020F0B51C4900220A7066
:100C700030481B4C1D4B2568ED0606D405689D4287
:100C8000F9D31B4865210180F0BD164B1D782668FD
:100C9000F60605D50668FB2EF9D3002DF7D0F0BD7A
:100CA000026005681A2DFCD31546164602600768D7
:100CB000342FFCD32768FF06FF0FB7403D43761C57
:100CC000082EF3D1002202600D7001681A29FCD3AE
:100CD0000548057001201870F0BDC0464A0200208A
:100CE000100400483800002044010020410D03009A
:100CF00032000020F0B50E4910220A6100240D4B8D
:100D00000D46103527463E461C601F68342FFCD325
:100D1000C7072F4600D00F463A604008771C072EC1
:100D2000F1D30020186018683428FCD30A60F0BDA5
:100D3000180400482404004010B5184C1849884293
:100D40000ADD1849884212DC3E4988421DD04049DC
:100D5000884218D1641D18E03B4988420FD01249DF
:100D6000884211D03D4988420DD1FD340DE03A4909
:100D7000884206D03749884205D1E41D05E0F634A3
:100D800003E0A41D01E010BDF9342046FFF730FE5A
:100D9000204610BC02BC8E46FFF720BE0B030000AD
:100DA000FF2B0140FF430140001000400168012279
:100DB0000A4302607047000010B50A888262214A27
:100DC000904202D0204B98420BD103687024A34379
:100DD00003604B8804681C4304608B8804681C43D0
:100DE00004608B68C362194B984206DC164B98422C
:100DF0000CD01A4B984207D108E0154A904205D012
:100E0000144A904202D0144A904215D1026840F22E
:100E100000339A430260CA88036813430360104A90
:100E200082180A23DA41072A06D801239340E122D7
:100E3000134201D0097B0163416901220A434261E7
:100E400010BDC046002C014000040040FF3F01409F
:100E500000400140004801400044014000200040A3
:100E600000D4FEBF03490022027302604260816029
:100E70007047C046FFFF000002E008C8121F08C10B
:100E8000002AFAD170477047002001E001C1121F0B
:100E9000002AFBD170470000B80E000800000020B7
:100EA00018000000780E0008D00E0008180000207E
:100EB00038060000880E0008343731001F0606018E
:100EC00030000000010000001400000000000000DD
:04000005080000CD22
:00000001FF
