:020000040800F2
:100000005006002065010008F5010008D70100082E
:10001000710100087301000875010008000000006C
:100020000000000000000000000000005D02000869
:1000300079010008000000005B0200085F02000870
:100040007F0100087F0100087F0100087F01000890
:100050007F0100087F0100087F010008D50100082A
:100060007F0100087F0100087F010008D30100081C
:10007000D10100087F0100087F0100087F0100080E
:10008000830300087F010008000000007D030008D2
:100090007F030008810300087F0100087F0100083A
:1000A0007F0100087F0100087F0100087F01000830
:1000B00085030008000000007F0100080000000028
:1000C0007F010008000000007F0100080000000020
:1000D0000000000000000000000000000000000020
:1000E00000000000000000007F0100080000000088
:1000F0000000000000000000000000000000000000
:100100007F01000800000000000000000000000067
:1001100000000000000000000000000000000000DF
:1001200000000000000000000000000000000000CF
:1001300000000000000000000000000000000000BF
:100140000000000000000000000000007F01000827
:10015000DFF80CD000F02AF800480047D507000867
:10016000500600200648804706480047FEE7FEE7A5
:10017000FEE7FEE7FEE7FEE7FEE7FEE7FEE7FEE757
:100180006502000851010008D2B201E000F8012B1D
:10019000491EFBD270470022F6E710B513460A4607
:1001A00004461946FFF7F0FF204610BD064C074DE8
:1001B00006E0E06840F0010394E807009847103437
:1001C000AC42F6D3FFF7C8FFA00C0008C00C000833
:1001D000704770477047FEE780B540F2125000F05C
:1001E0005DFB8C48002100221023BDE8804000F018
:1001F000A9BA00BF7047B081204600F0C5B84FF4DF
:10020000702000F057BA00F01F010122800902FAA5
:1002100001F170474FF4FA704FF4FA7600F016BA15
:1002200005464FF470200C4600F044BA835823EA88
:10023000010181507047306840F0010030604FF498
:1002400070202C6000F036BA8358194381507047F3
:10025000316821F00101316070BD7047704700F0D6
:10026000FDB900003C48012141613C490A6842F067
:1002700070120A603A490A6842F470020A6050F843
:10028000041C41F0010140F8041C50F8041C8907CB
:10029000FBD50168334A1140334A016001681140BF
:1002A000324A0160016821F440010160C16A1140D5
:1002B000C1622F4950F8043C01F1E6621A402D4B0F
:1002C00040F8042C826A1A4040F203138262C26A28
:1002D0009A43C262C26A22F48032C262C26A22F0C7
:1002E0000042C262026B22F001020263D0F8BC201D
:1002F00022F48032C0F8BC2000224260C0F8C8203E
:1003000002680260026842F400520260026842F42D
:100310008062026002681140174A0160016811435F
:10032000016050F8041C41F0807140F8041C50F842
:10033000041C8901FBD5016821F0030101600168FB
:1003400041F00201016001680907FCD54FF000602F
:10035000002100F099BA00BF041002401C000140C7
:1003600088ED00E00C00FF08FFFFC277BFFFFFBF72
:10037000FFFFC2F7F0FFFF3F0000280870477047FB
:100380007047704770470000B0B54218445C55781C
:1003900000F05AFAA9480179407968406140084361
:1003A000B0FA80F04009B0BD70B51A4C00210222AD
:1003B0001023204600F0C6F9FFF72CFF164D56B16A
:1003C0002069C00602D42888013028800A2000F065
:1003D0003DF9013EF3E72888D8B100200021002232
:1003E00010232880204600F0ADF9FFF713FF56B127
:1003F0002069C00602D42888013028800A2000F035
:1004000025F9013EF3E7288818B1BDE8704000F0F7
:10041000C1B970BD00040048400000202DE9F84F2C
:1004200004AFEA4EF078D8B1854C71892046B1818D
:10043000FFF7AAFF002800F0F080824D4FF4807192
:100440002846FFF7A8FEB08928B114F8011B01382F
:1004500005F8011BF8E700F0E8FA0020F07025E04D
:10046000774C217C20787D29706106D1207A0D2877
:100470001CD1607A422815D018E0217D7D2905D154
:10048000217B0D2902D1617B42290BD094F82810E1
:100490007D2910D194F820100D290CD194F8211049
:1004A000422908D100F0A4FA00202075A7F10C041D
:1004B000A546BDE8F08F6178A278E3780143114347
:1004C000194319D0411E032927D9FD283AD0FE2807
:1004D00046D0FF2812D15A4C04200421FFF78BFE8E
:1004E000002800F09A80002030816088000400BA63
:1004F00000F10060306253E06520308100F012FBB3
:10050000C12000F0EDFA308901303081A7F10C04F0
:10051000A546BDE8F04F00F0FBBADFE801F0023578
:10052000488502200221B0814548FFF72DFF0028B1
:1005300073D0326A4448824279D97189414800F0C7
:1005400009FA2DE002200221B0813D48FFF71CFF8F
:10055000002862D000F0E6FAC12000F0C1FAD5E729
:10056000374C04200421FFF746FE002855D04FF4F5
:100570008070E178F0810120F070A078012808BF38
:100580004FF480717181C1E702200221B081EE48F1
:10059000FFF7FAFE002840D0306A2B49884246D93E
:1005A000A7F10C04A546BDE8F04F00F03EBAE64CBA
:1005B00002200221FFF71FFE78B380206478F081CB
:1005C00030690130306100F0ADFA002C08BF4FF403
:1005D000807404F10A00E94620F00700ADEB000545
:1005E000AD4604F1030828464146FFF7D4FD316AC1
:1005F0002846224600F06CF92846214600F024F9EE
:10060000B08830212853281981702846414600F0CF
:10061000FDF900F07DFACD4648E7A7F10C04A546A8
:10062000BDE8F04F00F015BA0120707066E7A7F141
:100630000C04A546BDE8F04F00F001BA18000020F8
:100640004801002044000020FF0F0008C04900229C
:100650000A600A688242FCD3704700BF0348016801
:1006600011B1016801390160704700BF3C000020F2
:1006700020490860704700BF2C48016841F08001A4
:1006800001607047B0B50446FFF7B9FD00B1B0BDD9
:10069000264D286840F0020028606C60286840F011
:1006A00040002860FFF7ABFD296821F002012960B6
:1006B000B0BD00BF70B5441E0025013C45F10006E9
:1006C00000F008F8012801D1002EF6D1012808BF5A
:1006D000042070BD07480168C9071CBF012070478E
:1006E0000168C9064FBF03200068022101EA5000DB
:1006F000704700BF0C2002400448C168090603D5BA
:100700000349016003490160704700BF04200240B3
:1007100023016745AB89EFCD70B5FFF781FD00B1CF
:1007200070BD024EFFF787FDFFF792BD102002401B
:1007300003490A6822F0070210430860704700BFAF
:10074000002002402DE9F043D0F800E0D0F80C8002
:1007500000264FF0030C0027102F14D023FA07F4C3
:10076000E4070DD00CFA06F502FA06F928EA0504AA
:100770002EEA050544EA090801FA06F445EA040EE2
:1007800002360137E8E7C0F800E0C0F80C80BDE8A9
:10079000F0830000B0B50C4D72B6CD4C6868A06116
:1007A0000B48007801281EBF00202081B0BD2548DD
:1007B00000F0C0F9A069E061286880F30888E0696A
:1007C000BDE8B040004700BF00100008180000203E
:1007D000007C000884B00220FFF7AAFF8A4E0320A5
:1007E000706040F2017000F059F8EF4C204600F0C4
:1007F000A1F96D46284600F03BFA4FF6FF702946F6
:1008000002906B20009000200190204600F0D6F965
:10081000204600F0CDF9FFF7DFFCFFF7C5FD04F13E
:100820000060002100221023FFF78CFF3078A84CD5
:10083000F07200F057F820896528FAD3FFF7AAFF75
:10084000F7E700BF00040040F0B50E4A0024002581
:1008500000238B4212D0C55C0026082E0AD2C4F3B6
:100860004E076C40E40718BF5740ECB201366508EC
:100870003C46F2E7A5B201332D0AEAE794484571F8
:100880000471F0BD01A0FFFF024A11400843024974
:100890000860704780FFFF1F08ED00E07346FFF718
:1008A000B2FC9E46094AFFF7CFBC00BF7346FFF774
:1008B000AAFC9E46054AFFF7B9BC00BF7346FFF786
:1008C000A2FC9E46014AFFF7BFBC00BF00100240D9
:1008D00010B500239342A8BF10BDCC5CC4540133B3
:1008E000F8E70000F8B57A4D174C00204FF48171FD
:1008F000287028612046FFF74EFC144E754FFEB15C
:1009000000F0B2F8E87858B1698928690231884264
:1009100016D0AA78A1190130286181F802210BE0D4
:100920003868FB280AD2A978A01980F80211701C37
:1009300002D12889143028810136E0E7002028619F
:10094000BDE8F840FFF76ABD48010020FEFEFFFF4A
:10095000240400402DE9FF4707AF064602209046D9
:100960000C46FFF7E5FE042094FBF0F4072000EBB3
:10097000840020F00700ADEB0005AD462846214677
:10098000FFF709FC0020A04205DA56F8201045F8D0
:1009900020100130F7E747F8104CFFF7ADFE5FEA93
:1009A000885002D14046FFF76DFE002047F8140C36
:1009B00047F8180C57F8180C57F8101C884210D23A
:1009C00057F8180C57F8181C55F8211008EB800040
:1009D000FFF7A2FE3420FFF74BFE57F8180C01304A
:1009E000E6E7A7F10C04A546BDE8F047FFF744BED3
:1009F00080B500F097F804480921083000F006F8A7
:100A0000BDE8804000F084B80000002070B50C46BE
:100A100005460026A642A8BF70BDA85D00F060F89C
:100A20003420FFF713FE0136F4E780B500F07AF8C2
:100A3000302000F055F8BDE8804000F069B880B57E
:100A400000F070F8C12000F04BF8BDE8804000F0E5
:100A50005FB880B500F066F8C22000F041F8BDE84C
:100A6000804000F055B8000070B5194C00201A4DB8
:100A70001A49A07017482A68D20605D402688A422B
:100A8000F9D36520208170BD21782A68D20605D56A
:100A90000268FB2AF9D30029F7D070BD1A20FFF7AE
:100AA000D5FD0026082E0BD03420FFF7CFFDA0780F
:100AB0002968C1F30011B14001360843A070F1E785
:100AC0001A20FFF7C3FD01202070A078A07170BD2F
:100AD000180000202404004010040048410D0300C9
:100AE000F8B50A4D1026044600272E613420FFF782
:100AF000ADFD072F07D8E007284608BF1030066075
:100B000064080137F2E710202860F8BD1804004897
:100B100080B5FFF761FB02480021016080BD00BF86
:100B2000440100200248012101221023FFF70ABEE0
:100B30000004004810B54C49884218D04749884203
:100B400018D01A49884218D04549884218D04249DD
:100B5000884218D04349884218D04449884218D066
:100B6000B0F1804F18BF10BD4FF4806413E040F225
:100B7000123410E040F201440DE040F204440AE077
:100B80004FF4816407E040F20B3404E04FF4447406
:100B900001E040F211342046FFF790FE2046BDE808
:100BA0001040FFF783BE00BF00040040001000406B
:100BB000016841F0010101607047000010B50A882A
:100BC0008262254A904204D0244C40F48063A342C0
:100BD0000BD1036823F0700303604B880468234340
:100BE00003608B880468234303608B689042C36270
:100BF0000ED1136823F440731360CB881468234329
:100C00001360097B0163416941F00101416110BD3D
:100C1000B0F1804F0ED0114A90420BD0104A904252
:100C200008D0104A904205D00F4A904202D00F4A95
:100C30009042E8D1026822F440720260CA880368D8
:100C40001A430260074A9042DBD0084A9042D8D04B
:100C5000054A9042D5D0D6E7002C01400004004060
:100C60000020004000400140004801400044014095
:100C700000224FF6FF710273C0E9002281607047C5
:100C800002E008C8121F08C1002AFAD17047704755
:100C9000002001E001C1121F002AFBD170470000B3
:100CA000C00C00080000002018000000800C0008A4
:100CB000D80C00081800002038060000900C00082E
:100CC0001400000001000000343731001F06060147
:080CD0003000000000000000EC
:04000005080001519D
:00000001FF
