:020000040800F2
:1000000050060020E10000086D0100086B010008A7
:1000100000000000000000000000000000000000E0
:100020000000000000000000000000007101000856
:1000300000000000000000006F01000873010008CC
:10004000F3000008F3000008F3000008F3000008C4
:10005000F3000008F3000008F3000008F3000008B4
:1000600000000000F3000008F3000008F30000089F
:1000700069010008F3000008F30000080000000018
:10008000F3000008F300000800000000F30000087F
:10009000F3000008F3000008F3000008F300000874
:1000A000F3000008F3000008F3000008F300000864
:1000B000F300000800000000000000000000000045
:1000C000F300000800000000F30000080348854624
:1000D00000F038F8004800479D080008500600204E
:1000E0000448804704480047FEE7FEE7FEE7FEE7D6
:1000F000FEE7FEE775010008CD00000803460B434C
:100100009B0703D009E008C9121F08C0042AFAD2CD
:1001100003E00B780370401C491C521EF9D2704753
:10012000D2B201E00270401C491EFBD2704700228F
:10013000F6E710B513460A4604461946FFF7F0FFE6
:10014000204610BD064C0125064E05E0E36807CCAD
:100150002B430C3C98471034B442F7D3FFF7BAFF57
:100160007C0E00089C0E00087047FEE77047704741
:1001700070477047F0B481B04248021F13680121F4
:100180000B43136013689B07FCD5036880241C4352
:10019000046000240094009B7F2B05D8009B5B1C0F
:1001A0000093009B802BF9D3036890251D430560C5
:1001B0000094009B7F2B05D8009B5B1C0093009B49
:1001C000802BF9D30323DD4306682E4006601568B3
:1001D0002D4E2E40166005682C4E2E400660056898
:1001E0002B4E2E400660856A0F26B5438562C56A90
:1001F00040F20316B543C5620D04C66AAE43C6623B
:10020000CD07C66AAE43C662056B8D430563446085
:1002100014680C4314601F4D022416686F1EAF4211
:1002200002D226403D46F8D01568AD0700D4FEE75F
:10023000194D2E6826430527BE432E6005680560CC
:1002400005680560056805600568144E2E40066067
:100250000568134E2E4306600D0616682E43166081
:100260001568AD01FCD502689A430260026822431A
:10027000026002681207FCD5C806002101B0F0BC7C
:1002800000F088BB04100240FFFFF2FE0C00FF08E4
:10029000FFFFC277FF04000000200240FFFFC2F70B
:1002A00000000408F0B581B0214800250222102387
:1002B000294600F0ADFA1F4E356040F2F417306861
:1002C000B842FCD31C4C2A4619480169C90602D41D
:1002D0002188491C2180356031680A29FCD3521CD1
:1002E000BA42F2D1218809B300252580102329467E
:1002F0002A4600F08DFA35603068B842FCD32846B3
:10030000F34A1169C90602D42188491C218035604D
:1003100031680A29FCD3401CB842F2D1208828B1A8
:1003200001B0F0BC01BC864600F092BA01B0F0BD4D
:10033000000400482404004036000020F0B503AF5C
:1003400085B06E46D848007840B3D8480188D84870
:100350000180D848445C4218557800F0EFFAD7483D
:100360000078A04200D08EE1D3480078A84200D0A7
:1003700089E1D34840F20011FFF7D9FECC4802884A
:1003800032B1012A00D80122CD48CA49FFF7B6FE92
:1003900000F008FC0020C449087026E0C54C207815
:1003A000C8490860217C7D2906D1207A0D281CD1FE
:1003B000607A422815D018E0217D7D2905D1217B66
:1003C0000D2902D1617B42290BD02821615C7D2956
:1003D0000FD12021615C0D290BD12121615C4229C3
:1003E00007D100F0B9FB00202075FC1F053CA54695
:1003F000F0BD61780143A3781943E57829432ED0F5
:10040000FC284ADC401E03282CD8810001A2511888
:100410008F46C04600F006B800F067B800F084B818
:1004200000F0E7B8A24802210180A2481C4600F073
:1004300085FAA2480078A04200D024E19E480078C6
:10044000A84200D01FE1A3480268A748824200D812
:1004500021E1964801889A4800F018FB5CE0A34827
:10046000652101809A48012110240A46234600F0A4
:10047000CFF9C12000F030FC9C480188491C018064
:10048000964800F093FA0025914829462A462346CB
:1004900000F0BEF992480560A7E7FD2800D1ACE066
:1004A000FE2800D1C3E0FF28DCD18148042101806F
:1004B000257960793061204600F040FA7F48007865
:1004C000A84200D0DFE07C4800783169884200D043
:1004D000D9E0F048002101800120C00661880904AC
:1004E00009BA08187B49086016E0714802210180AA
:1004F00070481C4600F022FA70480078A04200D0F4
:10050000C1E06D480078A84200D0BCE071480068A6
:100510007549884200D8BEE0FC1F053CA546F0BCEA
:1005200001BC864600F03EBB614802210180614863
:100530001C4600F003FA61480078A04200D0A2E017
:100540005D480078A84200D09DE05F48802101808E
:100550005E480168491C016056484478F54801210D
:1005600010230A4600F054F940F2001504B1254664
:1005700028460A30072188436946716069460C1A8B
:10058000E91CA5462046F160FFF7D1FD51480168FE
:1005900020462A4600F02AFA2046294600F0CEF9E5
:1005A0004648007860553461601930218170F74900
:1005B000097841700024484DB4603069005D00F056
:1005C0008BFBB068286028683428FCD3641CF06872
:1005D0008442F2D1D64800F0E9F900241023D5482E
:1005E0002146224600F014F93D48046070688546B3
:1005F000FBE63C480121017034E72D4802210180CF
:100600002C481C4600F09AF9E1480078A0423AD103
:10061000DE480078A84236D1C648012110240A4697
:10062000234600F0F5F8C12000F056FB28E72048EB
:1006300004210180257960793061204600F07EF93F
:10064000D3480078A8421ED1D0480078316988424A
:1006500019D10120144908701B4940F2001008808C
:10066000A178012900D0E07810490880B04800F056
:100670009DF9B048002410232146224600F0C8F816
:1006800017480460B1E6FC1F053CA546F0BC01BC60
:10069000864600F0BBBAFC1F053CA546F0BC01BC79
:1006A000864600F099BAC046310000203C01002087
:1006B00034000020480100202600002027000020F0
:1006C0003C00002028000020240000202C000020F6
:1006D000000400482000002024040040120500000F
:1006E0004001002030000020FF0F000832000020F1
:1006F000404908607047C0460248016880220A43AA
:100700000260704710200240B0B50146394A3A4CA9
:10071000052023461568ED0702D05B1CFAD3B0BD57
:100720001068C00613D41068400802231840F6D1A0
:1007300050681843506091605068402101435160F7
:1007400005201168C90704D0641CFAD309E004200D
:10075000B0BD1068C00603D410684008184000E01F
:100760000420516899435160B0BDC04627480168D4
:1007700010220A43026070470448C168090603D585
:1007800003490160034901607047C04604200240EC
:1007900023016745AB89EFCD70B50246154B164C6A
:1007A000052025461E68F60702D06D1CFAD370BDE1
:1007B0001868C00610D41868400802263040F6D1E8
:1007C0005868012528435860116005201968C90739
:1007D00004D0641CFAD309E0042070BD1868C00678
:1007E00003D418684008304000E004205968A94349
:1007F000596070BD0C2002400000F1FF03490A68F7
:1008000007239A4302430A607047C0460020024013
:10081000F0B582B0019305680090C06800263746A5
:10082000019BFB40DB0709D01346B3400324B440CF
:10083000A04318430B46B340A5431D43B61C7F1C81
:10084000102FEDD100990D60C86002B0F0BD00001E
:10085000B0B572B60C4C60680C4D28600C4800783E
:1008600001280DD1304800F059FA28680A4908607B
:10087000206880F308880868B0BC02BC8E46004738
:10088000814800210180B0BD001000081800002040
:10089000007C0008320000201C00002084B00220F0
:1008A000FFF7ACFFFFF762FF1D48032101601D4801
:1008B00000F07CF81C4D284600F030FA6E463046B9
:1008C00000F0C2FA194802904720009000240194D9
:1008D0002846314600F062FA284600F059FAD94815
:1008E00000F064F8D64D10262846214622463346AD
:1008F000FFF78EFFFFF7D6FC2846214622463346F7
:10090000FFF786FF0C480078A549C8705E4C00F0E0
:1009100077F820886528FAD3FFF79AFFF7E7C046F3
:100920000C0000200107000000040040FFFF000051
:10093000120500000004004810000020F0B581B04E
:1009400000900020C1B1104C03460546009A565D48
:1009500007461A04520C7340DB0700D0624013466E
:100960007A1CF6B27608072F1746F2D36D1C8D421B
:10097000ECD198B2000A00E003460449087004482C
:10098000037001B0F0BDC04601A0FFFF26000020AB
:1009900027000020034A0A40024303480260BFF3D5
:1009A0004F8F704780FFFF1F08ED00E01F210140BF
:1009B00001228A4080090C49435813434350704731
:1009C0001F21014001228A4080090749435893436F
:1009D000435070471F21014001228A40800902498B
:1009E000435813434350704700100240012A05DB6F
:1009F0000B780370491C401C521EF9D1704700004F
:100A0000F0B581B0B048002101701B4E00913160FB
:100A10001A4C40F20217204640F20211FFF787FB02
:100A2000174D00F013F9287858B130681549098836
:100A3000891C884219D0A24909782170401C306075
:100A400008E0B5480068FB2808D29D48007820706F
:100A5000012F06D0641C7F1EE3D106E000983060B1
:100A600003E09C4801881431018001B0F0BC01BC56
:100A70008646FFF763BCC0462C00002048010020DA
:100A8000310000203C01002032000020F0B503AF0F
:100A900087B06E46F51D0935F260B160044602204C
:100AA000FFF7ACFEB168C817800F0918716003200A
:100AB0008143C91D072081433160FFF757FE684617
:100AC0003168401A71688910854670603160FFF79F
:100AD0002EFBB06804280FDB70683168E2781206DC
:100AE000A3781B049A1863781B02D2182378D218B3
:100AF00004C0241D491EF1D13068A860FFF73CFEF8
:100B0000F068810502D1FFF7FFFDF0680021696000
:100B100029602A68A9688A42746814D23421B160B5
:100B20002A6829688900615892001018FFF734FE7E
:100B3000B068FFF7DDFDF0682968491C29602A6864
:100B4000A9688A42ECD3FC1F053CA546F0BC01BC59
:100B50008646FFF7D1BD0000F0B581B038480121CD
:100B600010230A46FFF754FE00246B4E0C4F254617
:100B7000785D00F0B1F8346030683428FCD36D1C27
:100B8000092DF5D12F48FFF711FF002510232C4820
:100B900029462A46FFF73CFE2B48056001B0F0BD10
:100BA0000000002070B5264D0121102428460A4679
:100BB0002346FFF72DFE302000F08EF82148FFF786
:100BC000F5FE00262846314632462346FFF720FE32
:100BD0001D48066070BDC04670B5194D0121102436
:100BE00028460A462346FFF713FEC12000F074F89A
:100BF0001448FFF7DBFE00262846314632462346DE
:100C0000FFF706FE1048066070BDC04670B50C4D7B
:100C10000121102428460A462346FFF7F9FDC22089
:100C200000F05AF80748FFF7C1FE00262846314673
:100C300032462346FFF7ECFD0348066070BDC04610
:100C4000000400481205000040010020F0B51C49D6
:100C500000220A7030481B4C1D4B2568ED0606D457
:100C600005689D42F9D31B4865210180F0BD164BF4
:100C70001D782668F60605D50668FB2EF9D3002DEB
:100C8000F7D0F0BD026005681A2DFCD31546164654
:100C900002600768342FFCD32768FF06FF0FB740B8
:100CA0003D43761C082EF3D1002202600D700168CE
:100CB0001A29FCD30548057001201870F0BDC04604
:100CC0004A0200201004004838000020440100209F
:100CD000410D030032000020F0B50E4910220A61D8
:100CE00000240D4B0D46103527463E461C601F68FC
:100CF000342FFCD3C7072F4600D00F463A60400878
:100D0000771C072EF1D30020186018683428FCD314
:100D10000A60F0BD180400482404004010B5184CC7
:100D2000184988420ADD1849884212DC3E49884247
:100D30001DD04049884218D1641D18E03B498842C3
:100D40000FD01249884211D03D4988420DD1FD345F
:100D50000DE03A49884206D03749884205D1E41D62
:100D600005E0F63403E0A41D01E010BDF93420468F
:100D7000FFF730FE204610BC02BC8E46FFF720BEB7
:100D80000B030000FF2B0140FF4301400010004017
:100D9000016801220A4302607047000010B50A880A
:100DA0008262214A904202D0204B98420BD10368C4
:100DB0007024A34303604B8804681C4304608B8841
:100DC00004681C4304608B68C362194B984206DCBC
:100DD000164B98420CD01A4B984207D108E0154A9E
:100DE000904205D0144A904202D0144A904215D144
:100DF000026840F200339A430260CA8803681343D2
:100E00000360104A82180A23DA41072A06D8012310
:100E10009340E122134201D0097B01634169012221
:100E20000A43426110BDC046002C0140000400404E
:100E3000FF3F0140004001400048014000440140A4
:100E40000020004000D4FEBF03490022027302606C
:100E5000426081607047C046FFFF000002E008C8A2
:100E6000121F08C1002AFAD170477047002001E024
:100E700001C1121F002AFBD170470000A00E00081C
:100E800000000020180000005C0E0008B80E0008EA
:100E900018000020380600006C0E0008000000005A
:100EA000343731001F060601300000000100000049
:080EB000140000000000000026
:04000005080000CD22
:00000001FF
