:020000040800F2
:1000000000900020850B0008690B00086B0B0008AE
:1000100000000000000000000000000000000000E0
:100020000000000000000000000000006D0B000850
:1000300000000000000000006F0B0008710B0008BA
:10004000D50B0008D50B0008D50B0008D50B000810
:10005000D50B0008D50B0008D50B0008D50B000800
:10006000D50B0008D50B0008D50B0008D50B0008F0
:10007000D50B0008D50B0008D50B0008D50B0008E0
:10008000D50B0008D50B0008D50B0008D50B0008D0
:10009000D50B0008D50B0008D50B0008D50B0008C0
:1000A000D50B0008D50B0008D50B0008D50B0008B0
:0C00B000D50B0008D50B0008D50B00088C
:1000BC0010B5064C2378002B07D1054B002B02D032
:1000CC00044800E000BF0123237010BD180000207D
:1000DC00000000009C0D0008044B10B5002B03D051
:1000EC000349044800E000BF10BDC04600000000FA
:1000FC001C0000209C0D0008002243088B4274D386
:10010C0003098B425FD3030A8B4244D3030B8B420C
:10011C0028D3030C8B420DD3FF22090212BA030C15
:10012C008B4202D31212090265D0030B8B4219D3F6
:10013C0000E0090AC30B8B4201D3CB03C01A524116
:10014C00830B8B4201D38B03C01A5241430B8B425E
:10015C0001D34B03C01A5241030B8B4201D30B0347
:10016C00C01A5241C30A8B4201D3CB02C01A52416E
:10017C00830A8B4201D38B02C01A5241430A8B4231
:10018C0001D34B02C01A5241030A8B4201D30B021A
:10019C00C01A5241CDD2C3098B4201D3CB01C01A34
:1001AC00524183098B4201D38B01C01A524143093E
:1001BC008B4201D34B01C01A524103098B4201D32C
:1001CC000B01C01A5241C3088B4201D3CB00C01A99
:1001DC00524183088B4201D38B00C01A5241430811
:1001EC008B4201D34B00C01A5241411A00D2014636
:1001FC00524110467047FFE701B5002000F006F8A9
:10020C0002BDC0460029F7D076E770477047C0465C
:10021C000323F0B587B015006A46CC171C40641850
:10022C00A410A3000733DB08DB00D31A00AF9D46F4
:10023C006E46220078600021300000F0A1FD002203
:10024C007868A24246DB3B4A80211300FC604902DD
:10025C0010690842FCD15169002905DA3649096850
:10026C0091603649096891606A051DD15A69344913
:10027C00FC200A405A610222596940000A435A6123
:10028C00F8221206AA185969120A02400A435A6146
:10029C008022596952021143596119691142FCD1EA
:1002AC0002215A698A435A618022196980240A43BF
:1002BC001A61002264023A617A6101327869F96844
:1002CC00884216D38022BD46596912060A435A61E8
:1002DC0007B0F0BDC37881781B0609040B43017885
:1002EC000B434178043009020B43910073500132E7
:1002FC00A7E75969114359617869396980008059B8
:10030C0049190860786939690130800080590431D5
:10031C004919086019692142FCD119691A61596996
:10032C0091435961396908313961796902317961CF
:10033C00C4E7C0460020024000000020040000205A
:10034C0007FEFFFF002310B5934200DB10BDCC5C11
:10035C00C4540133F8E7000000B589B01022002125
:10036C0004A800F00DFD0120094A516B01435163B3
:10037C00536B02A903400193019B4023029300237A
:10038C009F30C0050393069300F01FFC09B000BD1D
:10039C000010024080230022DB055A625A6A824216
:1003AC00FCD3704710B572B6094B0A4A1B68136030
:1003BC00094A1278012A03D00022084B1A8010BD7A
:1003CC00074A1360074A126882F308889847F6E7D1
:1003DC00041000088401002000F8000842000020EE
:1003EC00BC02002000100008F7B50191002100901C
:1003FC000B0008000125124A124F11705170019C1C
:10040C0084420BDC002902D013701B0A5370117844
:10041C000D4B197052780D4B1A70F7BD00990C5C8E
:10042C00082126005E405B082E4201D07B409BB227
:10043C000139C9B264080029F3D129000130DEE783
:10044C003400002001A0FFFF8A0100208901002058
:10045C0070B54318455C5C78FFF7C6FF054B002070
:10046C001B78AB4205D1044B1878001B4342584112
:10047C00C0B270BD8A0100208901002010B5FFF7C1
:10048C006BFF0022014B1A6010BDC046C402002055
:10049C00A021C9050B68034A1A4080235B01134352
:1004AC000B607047FFCFFFFFF8B5A0210023802021
:1004BC001E4D1F4C2B70C9054033C0050A691A42EA
:1004CC0027D01C4BA021802618784023C905F6059F
:1004DC000A6914001C401A4222D11A20A027FFF7E7
:1004EC0059FF0126FF053420FFF754FF3B692A789A
:1004FC009B093340A340013413432B70082CF2D1D9
:10050C001A20FFF747FF0B4B2A781E700A4B1A7004
:10051C0005E0426AA242D1D96522084B1A80F8BD87
:10052C00726AFA2AD4D90028D2D0F8E74500002004
:10053C00400D030044000020C202002042000020B5
:10054C00F8B5A0264023050008240127F605B36260
:10055C003420FFF71FFF40233D420DD0B361013C17
:10056C00E4B26D08002CF3D13420FFF713FFA02365
:10057C004022DB059A61F8BDB362F0E710B5FFF7D6
:10058C0087FF3020FFF7DCFFFFF778FF10BD10B5B9
:10059C00FFF77EFFC120FFF7D3FFFFF76FFF10BD02
:1005AC0010B5FFF775FFC220FFF7CAFFFFF766FF14
:1005BC0010BD70B506000D000024AC4200DB70BD10
:1005CC00305DFFF7BDFF3420FFF7E4FE0134F4E7A4
:1005DC0010B5FFF75DFF09210248FFF7EAFFFFF7AF
:1005EC004DFF10BD08000020F7B5934C934D2378B8
:1005FC0000AF002B1ED0924B28001988914B19800C
:10060C00FFF726FF002815D096228F4E52000021AE
:10061C00300000F0B5FB8B4B1A8800239A4205DCA6
:10062C00FFF7ACFF00232370BD46F7BDE95CF15426
:10063C000133F3E72B78854E33602A7C7D2A0AD16F
:10064C002A7A0D2A07D16A7A422A04D1FFF7C0FF11
:10065C0000232B75E8E72A7D7D2A05D12A7B0D2AFC
:10066C0002D16A7B422AF1D02A00283212787D2AE4
:10067C0007D16A1CD27F0D2A03D1AA1CD27F422A31
:10068C00E4D0002B22D1AA786B781343EA78134379
:10069C0002D165226E4B1A803368FF2B49D104219D
:1006AC00684BEC781980AB78280024021C43FFF7C8
:1006BC00CFFE674D002836D000232B80802364BAF0
:1006CC001B05A4B2E418634B1C6013E0012B1AD178
:1006DC0002215C4B28001980FFF7BAFE00280FD0CE
:1006EC005C4B1A685C4B9A4207D9554B5648198893
:1006FC00FFF78EFDFFF742FF96E7FFF748FF93E702
:10070C00FFF74EFF90E7052BC6D102214D4B280079
:10071C001980FFF79DFE0028BED04E4B1A6880232F
:10072C005B02D218E1E7FFF73BFF2B8801332B80EC
:10073C007AE7FE2B15D10421424B28001980FFF7D4
:10074C0087FE0028DCD0AB78012B07D0EB783C4A35
:10075C00138001232370FFF791FE65E780235B0074
:10076C00F5E72B78FD2B0DD10221364B2800198093
:10077C00FFF76EFE002805D0FFF78AFEC120FFF7B9
:10078C00DFFEE8E73168022906D12E4B28001980DC
:10079C00FFF75EFE0028ADD13368042B0CD101228B
:1007AC002E4B1A70FFF774FEC120FFF7C9FE284AC2
:1007BC00138801331380CEE7032BF3D10222214B94
:1007CC001A80274A1368013313606C78002C01D10E
:1007DC000134FF3402212800FFF73AFE00288FD0A5
:1007EC00FFF756FE23006E460A33DB08DB00F31AD4
:1007FC009D46E51C2A00002168467B6000F0C0FA8B
:10080C00144B220019686846FFF79CFD21006846CE
:10081C00FFF7EAFD134B7A681B7868461355124BA9
:10082C006C441B78290063703023A370FFF7C1FE62
:10083C00FFF724FEB546F7E6410000208B010020AF
:10084C0048000020C00200204A0000203800002090
:10085C004200002078010020FF0F0008400000201B
:10086C003C0000208A01002089010020F8B5962266
:10087C0000241B4D1B4E1C4B2100280080275200CE
:10088C0034601C7000F07CFAFF05FFF70DFE174B6F
:10089C001B78002B11D0164A3368128802329A4208
:1008AC000FD0144A0133127833602A709623013426
:1008BC0001355B009C42E8D103E07A6AFA2A03D93D
:1008CC003360FFF791FEF8BD0A4B1B782B700223A7
:1008DC00FF339C42EAD1084A138814331380E5E7AE
:1008EC008B0100203C00002044000020410000202F
:1008FC0048000020450000204200002010B50A4CA2
:10090C00302220000949FFF71DFDA378082B0AD0DF
:10091C00013BDBB2FD2B06D8082330212000034A13
:10092C00A370FFF775FC10BD8B01002000F80008C8
:10093C00F8B5A0258023FA20ED05EA681A4F9B0133
:10094C003A401343FA24EB604000FFF723FD0026E6
:10095C00640040222B69134201D10136B6B20A2041
:10096C00013CFFF717FD002CF3D1002E1AD0FA2012
:10097C00EB68A0263B40EB604000FA25FFF70AFD30
:10098C0040276D00F60533693B4201D10134A4B216
:10099C000A20013DFFF7FEFC002DF4D1002C01D004
:1009AC00FFF700FDF8BDC046FFCFFFFF0721234B2B
:1009BC0010B51A688A43110002220A431A60802279
:1009CC001B681F4B520019680A431A608022D20020
:1009DC0019681142FCD0DA681A4911401A4A0A43C4
:1009EC00DA608022196852040A431A608022D9689E
:1009FC0052050A43DA608022920419681142FCD035
:100A0C009A6812490A4007219A609A688A43110031
:100A1C0002220A4338219A609A680A40102AFBD1B4
:100A2C009A680B490B480A409A6000F06FF9094824
:100A3C0000F07CF9074800F079F910BD0020024065
:100A4C00001002408C80FF1F02080020FFF0FFFF07
:100A5C00FF8FFFFF0090D00370B501258021374C2C
:100A6C0088B0236C49052B432364236C03AE2B40C5
:100A7C000193019BE26B0A43E2630822E36B0B4098
:100A8C000093009B2E4B19680A431A6010221968B8
:100A9C000A431A6080232B4A5B0011680B431360D6
:100AAC00FFF784FFFFF758FC14220021300000F000
:100ABC0067F9E36B01222B43E363E36B80242B4048
:100ACC000293029B3F2333800023E4055242310002
:100ADC0020007360B260F36000F0C8F880222368D5
:100AEC00194993432360A3680B407021A36063688A
:100AFC008B436360A3689343A36023681D43256005
:100B0C00A0248023E405E268104D9B012A40134386
:100B1C00E360FFF70DFFE3682B40E3600C4B1A78A2
:100B2C000C4BDA70FFF7EAFEFFF7A0FE0A4B1B88AE
:100B3C00642BF9D9FFF736FCF6E7C04600100240EB
:100B4C000000014000200240F8BFFEFFFFCFFFFF76
:100B5C001100002008000020420000207047FEE732
:100B6C0070477047704700008022024B12059A6054
:100B7C007047C04600ED00E00D488546002103E0BB
:100B8C000C4B5B58435004310B480C4B42189A42A7
:100B9C00F6D30B4A02E0002313600432094B9A424D
:100BAC00F9D3FFF7E1FF00F0C7F8FFF755FFFEE7B9
:100BBC0000900020BC0D0008000000201800002050
:100BCC0018000020C8020020FEE7F7B500254B688E
:100BDC000A680093013B01931300EB400AD1019B7F
:100BEC00012B05D84368C96893434A431A434260B2
:100BFC000020FEBD01241300AC402340224228D02B
:100C0C001A0003275A4357433E000468FF43B4437A
:100C1C00009E564334430460019C012C05D88C681B
:100C2C00866854433E40344384600C69C668544320
:100C3C0037402743009CC760022C0AD14C69FF2B1C
:100C4C0009D80F26524356436243036AB3431343F6
:100C5C0003620135BBE70F221B0A5B435B435A431C
:100C6C006343466A96431E434662F2E7204A10B538
:100C7C000368904206D08024E405A04202D01D4CAB
:100C8C00A0420CD17024A3434C682343904212D051
:100C9C008024E405A0420ED0164CA0420BD0164C7A
:100CAC00A04208D0154CA04205D0154CA04202D051
:100CBC00144CA04203D1144C2340CC682343036052
:100CCC008B68C3620B888362904208D00B4B9842AE
:100CDC0005D00B4B984202D00A4B984201D10B7CA9
:100CEC0003630123426913434361002010BDC046D6
:100CFC00002C014000040040002000400040014056
:100D0C000044014000480140FFFCFFFFFA2110B5F0
:100D1C008900FFF7F1F90022034B013858609A6003
:100D2C0005321A6010BDC04610E000E0014B18609F
:100D3C007047C0461400002070B500260C4D0D4CB9
:100D4C00641BA410A64209D1002600F021F80A4D1C
:100D5C000A4C641BA410A64205D170BDB300EB581D
:100D6C0098470136EEE7B300EB5898470136F2E7A7
:100D7C00B40D0008B40D0008B40D0008B80D00083F
:100D8C0003008218934200D1704719700133F9E7C0
:100D9C00F8B5C046F8BC08BC9E467047F8B5C046CE
:080DAC00F8BC08BC9E4670472C
:040DB400E50000084E
:040DB800BD00000872
:100DBC0023016745AB89EFCD343731643506060125
:080DCC00300600000024F400D1
:0400000508000B855F
:00000001FF
